{
  "contractName": "ERC1948",
  "abi": [
    {
      "anonymous": false,
      "inputs": [
        {
          "indexed": true,
          "internalType": "address",
          "name": "owner",
          "type": "address"
        },
        {
          "indexed": true,
          "internalType": "address",
          "name": "approved",
          "type": "address"
        },
        {
          "indexed": true,
          "internalType": "uint256",
          "name": "tokenId",
          "type": "uint256"
        }
      ],
      "name": "Approval",
      "type": "event"
    },
    {
      "anonymous": false,
      "inputs": [
        {
          "indexed": true,
          "internalType": "address",
          "name": "owner",
          "type": "address"
        },
        {
          "indexed": true,
          "internalType": "address",
          "name": "operator",
          "type": "address"
        },
        {
          "indexed": false,
          "internalType": "bool",
          "name": "approved",
          "type": "bool"
        }
      ],
      "name": "ApprovalForAll",
      "type": "event"
    },
    {
      "anonymous": false,
      "inputs": [
        {
          "indexed": true,
          "internalType": "uint256",
          "name": "tokenId",
          "type": "uint256"
        },
        {
          "indexed": false,
          "internalType": "string",
          "name": "oldData",
          "type": "string"
        },
        {
          "indexed": false,
          "internalType": "string",
          "name": "newData",
          "type": "string"
        }
      ],
      "name": "DataUpdated",
      "type": "event"
    },
    {
      "anonymous": false,
      "inputs": [
        {
          "indexed": true,
          "internalType": "address",
          "name": "from",
          "type": "address"
        },
        {
          "indexed": true,
          "internalType": "address",
          "name": "to",
          "type": "address"
        },
        {
          "indexed": true,
          "internalType": "uint256",
          "name": "tokenId",
          "type": "uint256"
        }
      ],
      "name": "Transfer",
      "type": "event"
    },
    {
      "inputs": [
        {
          "internalType": "address",
          "name": "to",
          "type": "address"
        },
        {
          "internalType": "uint256",
          "name": "tokenId",
          "type": "uint256"
        }
      ],
      "name": "approve",
      "outputs": [],
      "stateMutability": "nonpayable",
      "type": "function"
    },
    {
      "inputs": [
        {
          "internalType": "address",
          "name": "owner",
          "type": "address"
        }
      ],
      "name": "balanceOf",
      "outputs": [
        {
          "internalType": "uint256",
          "name": "",
          "type": "uint256"
        }
      ],
      "stateMutability": "view",
      "type": "function"
    },
    {
      "inputs": [
        {
          "internalType": "uint256",
          "name": "tokenId",
          "type": "uint256"
        }
      ],
      "name": "getApproved",
      "outputs": [
        {
          "internalType": "address",
          "name": "",
          "type": "address"
        }
      ],
      "stateMutability": "view",
      "type": "function"
    },
    {
      "inputs": [
        {
          "internalType": "address",
          "name": "owner",
          "type": "address"
        },
        {
          "internalType": "address",
          "name": "operator",
          "type": "address"
        }
      ],
      "name": "isApprovedForAll",
      "outputs": [
        {
          "internalType": "bool",
          "name": "",
          "type": "bool"
        }
      ],
      "stateMutability": "view",
      "type": "function"
    },
    {
      "inputs": [],
      "name": "name",
      "outputs": [
        {
          "internalType": "string",
          "name": "",
          "type": "string"
        }
      ],
      "stateMutability": "view",
      "type": "function"
    },
    {
      "inputs": [
        {
          "internalType": "address",
          "name": "player",
          "type": "address"
        },
        {
          "internalType": "string",
          "name": "tokenURI",
          "type": "string"
        }
      ],
      "name": "newItem",
      "outputs": [
        {
          "internalType": "uint256",
          "name": "",
          "type": "uint256"
        }
      ],
      "stateMutability": "nonpayable",
      "type": "function"
    },
    {
      "inputs": [
        {
          "internalType": "uint256",
          "name": "tokenId",
          "type": "uint256"
        }
      ],
      "name": "ownerOf",
      "outputs": [
        {
          "internalType": "address",
          "name": "",
          "type": "address"
        }
      ],
      "stateMutability": "view",
      "type": "function"
    },
    {
      "inputs": [
        {
          "internalType": "address",
          "name": "from",
          "type": "address"
        },
        {
          "internalType": "address",
          "name": "to",
          "type": "address"
        },
        {
          "internalType": "uint256",
          "name": "tokenId",
          "type": "uint256"
        }
      ],
      "name": "safeTransferFrom",
      "outputs": [],
      "stateMutability": "nonpayable",
      "type": "function"
    },
    {
      "inputs": [
        {
          "internalType": "address",
          "name": "from",
          "type": "address"
        },
        {
          "internalType": "address",
          "name": "to",
          "type": "address"
        },
        {
          "internalType": "uint256",
          "name": "tokenId",
          "type": "uint256"
        },
        {
          "internalType": "bytes",
          "name": "data",
          "type": "bytes"
        }
      ],
      "name": "safeTransferFrom",
      "outputs": [],
      "stateMutability": "nonpayable",
      "type": "function"
    },
    {
      "inputs": [
        {
          "internalType": "address",
          "name": "operator",
          "type": "address"
        },
        {
          "internalType": "bool",
          "name": "approved",
          "type": "bool"
        }
      ],
      "name": "setApprovalForAll",
      "outputs": [],
      "stateMutability": "nonpayable",
      "type": "function"
    },
    {
      "inputs": [
        {
          "internalType": "bytes4",
          "name": "interfaceId",
          "type": "bytes4"
        }
      ],
      "name": "supportsInterface",
      "outputs": [
        {
          "internalType": "bool",
          "name": "",
          "type": "bool"
        }
      ],
      "stateMutability": "view",
      "type": "function"
    },
    {
      "inputs": [],
      "name": "symbol",
      "outputs": [
        {
          "internalType": "string",
          "name": "",
          "type": "string"
        }
      ],
      "stateMutability": "view",
      "type": "function"
    },
    {
      "inputs": [
        {
          "internalType": "uint256",
          "name": "tokenId",
          "type": "uint256"
        }
      ],
      "name": "tokenURI",
      "outputs": [
        {
          "internalType": "string",
          "name": "",
          "type": "string"
        }
      ],
      "stateMutability": "view",
      "type": "function"
    },
    {
      "inputs": [],
      "name": "totalSuply",
      "outputs": [
        {
          "internalType": "uint256",
          "name": "",
          "type": "uint256"
        }
      ],
      "stateMutability": "view",
      "type": "function"
    },
    {
      "inputs": [
        {
          "internalType": "address",
          "name": "from",
          "type": "address"
        },
        {
          "internalType": "address",
          "name": "to",
          "type": "address"
        },
        {
          "internalType": "uint256",
          "name": "tokenId",
          "type": "uint256"
        }
      ],
      "name": "transferFrom",
      "outputs": [],
      "stateMutability": "nonpayable",
      "type": "function"
    },
    {
      "inputs": [
        {
          "internalType": "uint256",
          "name": "tokenId",
          "type": "uint256"
        }
      ],
      "name": "readData",
      "outputs": [
        {
          "internalType": "string",
          "name": "",
          "type": "string"
        }
      ],
      "stateMutability": "view",
      "type": "function"
    },
    {
      "inputs": [
        {
          "internalType": "uint256",
          "name": "tokenId",
          "type": "uint256"
        },
        {
          "internalType": "string",
          "name": "newData",
          "type": "string"
        }
      ],
      "name": "writeData",
      "outputs": [],
      "stateMutability": "nonpayable",
      "type": "function"
    }
  ],
  "bytecode": "0x60806040523480156200001157600080fd5b506040518060400160405280600e81526020017f4d6574617665727365546f6b656e0000000000000000000000000000000000008152506040518060400160405280600281526020017f4d54000000000000000000000000000000000000000000000000000000000000815250816000908051906020019062000096929190620000b8565b508060019080519060200190620000af929190620000b8565b505050620001cc565b828054620000c69062000197565b90600052602060002090601f016020900481019282620000ea576000855562000136565b82601f106200010557805160ff191683800117855562000136565b8280016001018555821562000136579182015b828111156200013557825182559160200191906001019062000118565b5b50905062000145919062000149565b5090565b5b80821115620001645760008160009055506001016200014a565b5090565b7f4e487b7100000000000000000000000000000000000000000000000000000000600052602260045260246000fd5b60006002820490506001821680620001b057607f821691505b602082108103620001c657620001c562000168565b5b50919050565b612d9880620001dc6000396000f3fe608060405234801561001057600080fd5b506004361061010b5760003560e01c806370a08231116100a2578063a2a9679911610071578063a2a96799146102dc578063b88d4fde146102fa578063c24bdc0814610316578063c87b56dd14610332578063e985e9c5146103625761010b565b806370a082311461024257806389f057611461027257806395d89b41146102a2578063a22cb465146102c05761010b565b806323b872dd116100de57806323b872dd146101aa57806337ebbc03146101c657806342842e0e146101f65780636352211e146102125761010b565b806301ffc9a71461011057806306fdde0314610140578063081812fc1461015e578063095ea7b31461018e575b600080fd5b61012a60048036038101906101259190611d1b565b610392565b6040516101379190611d63565b60405180910390f35b610148610474565b6040516101559190611e17565b60405180910390f35b61017860048036038101906101739190611e6f565b610506565b6040516101859190611edd565b60405180910390f35b6101a860048036038101906101a39190611f24565b61054c565b005b6101c460048036038101906101bf9190611f64565b610663565b005b6101e060048036038101906101db9190611e6f565b6106c3565b6040516101ed9190611e17565b60405180910390f35b610210600480360381019061020b9190611f64565b61077a565b005b61022c60048036038101906102279190611e6f565b61079a565b6040516102399190611edd565b60405180910390f35b61025c60048036038101906102579190611fb7565b610820565b6040516102699190611ff3565b60405180910390f35b61028c60048036038101906102879190612143565b6108d7565b6040516102999190611ff3565b60405180910390f35b6102aa61090f565b6040516102b79190611e17565b60405180910390f35b6102da60048036038101906102d591906121cb565b6109a1565b005b6102e46109b7565b6040516102f19190611ff3565b60405180910390f35b610314600480360381019061030f91906122ac565b6109cd565b005b610330600480360381019061032b919061232f565b610a2f565b005b61034c60048036038101906103479190611e6f565b610af1565b6040516103599190611e17565b60405180910390f35b61037c6004803603810190610377919061238b565b610c03565b6040516103899190611d63565b60405180910390f35b60007f80ac58cd000000000000000000000000000000000000000000000000000000007bffffffffffffffffffffffffffffffffffffffffffffffffffffffff1916827bffffffffffffffffffffffffffffffffffffffffffffffffffffffff1916148061045d57507f5b5e139f000000000000000000000000000000000000000000000000000000007bffffffffffffffffffffffffffffffffffffffffffffffffffffffff1916827bffffffffffffffffffffffffffffffffffffffffffffffffffffffff1916145b8061046d575061046c82610c97565b5b9050919050565b606060008054610483906123fa565b80601f01602080910402602001604051908101604052809291908181526020018280546104af906123fa565b80156104fc5780601f106104d1576101008083540402835291602001916104fc565b820191906000526020600020905b8154815290600101906020018083116104df57829003601f168201915b5050505050905090565b600061051182610d01565b6004600083815260200190815260200160002060009054906101000a900473ffffffffffffffffffffffffffffffffffffffff169050919050565b60006105578261079a565b90508073ffffffffffffffffffffffffffffffffffffffff168373ffffffffffffffffffffffffffffffffffffffff16036105c7576040517f08c379a00000000000000000000000000000000000000000000000000000000081526004016105be9061249d565b60405180910390fd5b8073ffffffffffffffffffffffffffffffffffffffff166105e6610d4c565b73ffffffffffffffffffffffffffffffffffffffff16148061061557506106148161060f610d4c565b610c03565b5b610654576040517f08c379a000000000000000000000000000000000000000000000000000000000815260040161064b9061252f565b60405180910390fd5b61065e8383610d54565b505050565b61067461066e610d4c565b82610e0d565b6106b3576040517f08c379a00000000000000000000000000000000000000000000000000000000081526004016106aa906125c1565b60405180910390fd5b6106be838383610ea2565b505050565b60606106ce8261119b565b6106d757600080fd5b6008600083815260200190815260200160002080546106f5906123fa565b80601f0160208091040260200160405190810160405280929190818152602001828054610721906123fa565b801561076e5780601f106107435761010080835404028352916020019161076e565b820191906000526020600020905b81548152906001019060200180831161075157829003601f168201915b50505050509050919050565b610795838383604051806020016040528060008152506109cd565b505050565b6000806107a6836111dc565b9050600073ffffffffffffffffffffffffffffffffffffffff168173ffffffffffffffffffffffffffffffffffffffff1603610817576040517f08c379a000000000000000000000000000000000000000000000000000000000815260040161080e9061262d565b60405180910390fd5b80915050919050565b60008073ffffffffffffffffffffffffffffffffffffffff168273ffffffffffffffffffffffffffffffffffffffff1603610890576040517f08c379a0000000000000000000000000000000000000000000000000000000008152600401610887906126bf565b60405180910390fd5b600360008373ffffffffffffffffffffffffffffffffffffffff1673ffffffffffffffffffffffffffffffffffffffff168152602001908152602001600020549050919050565b60006108e36007611219565b60006108ef600761122f565b90506108fb848261123d565b610905818461145a565b8091505092915050565b60606001805461091e906123fa565b80601f016020809104026020016040519081016040528092919081815260200182805461094a906123fa565b80156109975780601f1061096c57610100808354040283529160200191610997565b820191906000526020600020905b81548152906001019060200180831161097a57829003601f168201915b5050505050905090565b6109b36109ac610d4c565b83836114ce565b5050565b6000806109c4600761122f565b90508091505090565b6109de6109d8610d4c565b83610e0d565b610a1d576040517f08c379a0000000000000000000000000000000000000000000000000000000008152600401610a14906125c1565b60405180910390fd5b610a298484848461163a565b50505050565b610a388261079a565b73ffffffffffffffffffffffffffffffffffffffff163373ffffffffffffffffffffffffffffffffffffffff1614610a6f57600080fd5b817f70fc7d66686bb9a40f0b9075882d22a152689e4619fc666c06c2b3b51befa3c86008600085815260200190815260200160002083604051610ab3929190612774565b60405180910390a2610ac5828261145a565b80600860008481526020019081526020016000209080519060200190610aec929190611c0c565b505050565b6060610afc82610d01565b6000600660008481526020019081526020016000208054610b1c906123fa565b80601f0160208091040260200160405190810160405280929190818152602001828054610b48906123fa565b8015610b955780601f10610b6a57610100808354040283529160200191610b95565b820191906000526020600020905b815481529060010190602001808311610b7857829003601f168201915b505050505090506000610ba6611696565b90506000815103610bbb578192505050610bfe565b600082511115610bf0578082604051602001610bd89291906127e7565b60405160208183030381529060405292505050610bfe565b610bf9846116ad565b925050505b919050565b6000600560008473ffffffffffffffffffffffffffffffffffffffff1673ffffffffffffffffffffffffffffffffffffffff16815260200190815260200160002060008373ffffffffffffffffffffffffffffffffffffffff1673ffffffffffffffffffffffffffffffffffffffff16815260200190815260200160002060009054906101000a900460ff16905092915050565b60007f01ffc9a7000000000000000000000000000000000000000000000000000000007bffffffffffffffffffffffffffffffffffffffffffffffffffffffff1916827bffffffffffffffffffffffffffffffffffffffffffffffffffffffff1916149050919050565b610d0a8161119b565b610d49576040517f08c379a0000000000000000000000000000000000000000000000000000000008152600401610d409061262d565b60405180910390fd5b50565b600033905090565b816004600083815260200190815260200160002060006101000a81548173ffffffffffffffffffffffffffffffffffffffff021916908373ffffffffffffffffffffffffffffffffffffffff160217905550808273ffffffffffffffffffffffffffffffffffffffff16610dc78361079a565b73ffffffffffffffffffffffffffffffffffffffff167f8c5be1e5ebec7d5bd14f71427d1e84f3dd0314c0f7b2291e5b200ac8c7c3b92560405160405180910390a45050565b600080610e198361079a565b90508073ffffffffffffffffffffffffffffffffffffffff168473ffffffffffffffffffffffffffffffffffffffff161480610e5b5750610e5a8185610c03565b5b80610e9957508373ffffffffffffffffffffffffffffffffffffffff16610e8184610506565b73ffffffffffffffffffffffffffffffffffffffff16145b91505092915050565b8273ffffffffffffffffffffffffffffffffffffffff16610ec28261079a565b73ffffffffffffffffffffffffffffffffffffffff1614610f18576040517f08c379a0000000000000000000000000000000000000000000000000000000008152600401610f0f9061287d565b60405180910390fd5b600073ffffffffffffffffffffffffffffffffffffffff168273ffffffffffffffffffffffffffffffffffffffff1603610f87576040517f08c379a0000000000000000000000000000000000000000000000000000000008152600401610f7e9061290f565b60405180910390fd5b610f948383836001611715565b8273ffffffffffffffffffffffffffffffffffffffff16610fb48261079a565b73ffffffffffffffffffffffffffffffffffffffff161461100a576040517f08c379a00000000000000000000000000000000000000000000000000000000081526004016110019061287d565b60405180910390fd5b6004600082815260200190815260200160002060006101000a81549073ffffffffffffffffffffffffffffffffffffffff02191690556001600360008573ffffffffffffffffffffffffffffffffffffffff1673ffffffffffffffffffffffffffffffffffffffff168152602001908152602001600020600082825403925050819055506001600360008473ffffffffffffffffffffffffffffffffffffffff1673ffffffffffffffffffffffffffffffffffffffff16815260200190815260200160002060008282540192505081905550816002600083815260200190815260200160002060006101000a81548173ffffffffffffffffffffffffffffffffffffffff021916908373ffffffffffffffffffffffffffffffffffffffff160217905550808273ffffffffffffffffffffffffffffffffffffffff168473ffffffffffffffffffffffffffffffffffffffff167fddf252ad1be2c89b69c2b068fc378daa952ba7f163c4a11628f55a4df523b3ef60405160405180910390a4611196838383600161183b565b505050565b60008073ffffffffffffffffffffffffffffffffffffffff166111bd836111dc565b73ffffffffffffffffffffffffffffffffffffffff1614159050919050565b60006002600083815260200190815260200160002060009054906101000a900473ffffffffffffffffffffffffffffffffffffffff169050919050565b6001816000016000828254019250508190555050565b600081600001549050919050565b600073ffffffffffffffffffffffffffffffffffffffff168273ffffffffffffffffffffffffffffffffffffffff16036112ac576040517f08c379a00000000000000000000000000000000000000000000000000000000081526004016112a39061297b565b60405180910390fd5b6112b58161119b565b156112f5576040517f08c379a00000000000000000000000000000000000000000000000000000000081526004016112ec906129e7565b60405180910390fd5b611303600083836001611715565b61130c8161119b565b1561134c576040517f08c379a0000000000000000000000000000000000000000000000000000000008152600401611343906129e7565b60405180910390fd5b6001600360008473ffffffffffffffffffffffffffffffffffffffff1673ffffffffffffffffffffffffffffffffffffffff16815260200190815260200160002060008282540192505081905550816002600083815260200190815260200160002060006101000a81548173ffffffffffffffffffffffffffffffffffffffff021916908373ffffffffffffffffffffffffffffffffffffffff160217905550808273ffffffffffffffffffffffffffffffffffffffff16600073ffffffffffffffffffffffffffffffffffffffff167fddf252ad1be2c89b69c2b068fc378daa952ba7f163c4a11628f55a4df523b3ef60405160405180910390a461145660008383600161183b565b5050565b6114638261119b565b6114a2576040517f08c379a000000000000000000000000000000000000000000000000000000000815260040161149990612a79565b60405180910390fd5b806006600084815260200190815260200160002090805190602001906114c9929190611c0c565b505050565b8173ffffffffffffffffffffffffffffffffffffffff168373ffffffffffffffffffffffffffffffffffffffff160361153c576040517f08c379a000000000000000000000000000000000000000000000000000000000815260040161153390612ae5565b60405180910390fd5b80600560008573ffffffffffffffffffffffffffffffffffffffff1673ffffffffffffffffffffffffffffffffffffffff16815260200190815260200160002060008473ffffffffffffffffffffffffffffffffffffffff1673ffffffffffffffffffffffffffffffffffffffff16815260200190815260200160002060006101000a81548160ff0219169083151502179055508173ffffffffffffffffffffffffffffffffffffffff168373ffffffffffffffffffffffffffffffffffffffff167f17307eab39ab6107e8899845ad3d59bd9653f200f220920489ca2b5937696c318360405161162d9190611d63565b60405180910390a3505050565b611645848484610ea2565b61165184848484611841565b611690576040517f08c379a000000000000000000000000000000000000000000000000000000000815260040161168790612b77565b60405180910390fd5b50505050565b606060405180602001604052806000815250905090565b60606116b882610d01565b60006116c2611696565b905060008151116116e2576040518060200160405280600081525061170d565b806116ec846119c8565b6040516020016116fd9291906127e7565b6040516020818303038152906040525b915050919050565b600181111561183557600073ffffffffffffffffffffffffffffffffffffffff168473ffffffffffffffffffffffffffffffffffffffff16146117a95780600360008673ffffffffffffffffffffffffffffffffffffffff1673ffffffffffffffffffffffffffffffffffffffff16815260200190815260200160002060008282546117a19190612bc6565b925050819055505b600073ffffffffffffffffffffffffffffffffffffffff168373ffffffffffffffffffffffffffffffffffffffff16146118345780600360008573ffffffffffffffffffffffffffffffffffffffff1673ffffffffffffffffffffffffffffffffffffffff168152602001908152602001600020600082825461182c9190612bfa565b925050819055505b5b50505050565b50505050565b60006118628473ffffffffffffffffffffffffffffffffffffffff16611a96565b156119bb578373ffffffffffffffffffffffffffffffffffffffff1663150b7a0261188b610d4c565b8786866040518563ffffffff1660e01b81526004016118ad9493929190612ca5565b6020604051808303816000875af19250505080156118e957506040513d601f19601f820116820180604052508101906118e69190612d06565b60015b61196b573d8060008114611919576040519150601f19603f3d011682016040523d82523d6000602084013e61191e565b606091505b506000815103611963576040517f08c379a000000000000000000000000000000000000000000000000000000000815260040161195a90612b77565b60405180910390fd5b805181602001fd5b63150b7a0260e01b7bffffffffffffffffffffffffffffffffffffffffffffffffffffffff1916817bffffffffffffffffffffffffffffffffffffffffffffffffffffffff1916149150506119c0565b600190505b949350505050565b6060600060016119d784611ab9565b01905060008167ffffffffffffffff8111156119f6576119f5612018565b5b6040519080825280601f01601f191660200182016040528015611a285781602001600182028036833780820191505090505b509050600082602001820190505b600115611a8b578080600190039150507f3031323334353637383961626364656600000000000000000000000000000000600a86061a8153600a8581611a7f57611a7e612d33565b5b04945060008503611a36575b819350505050919050565b6000808273ffffffffffffffffffffffffffffffffffffffff163b119050919050565b600080600090507a184f03e93ff9f4daa797ed6e38ed64bf6a1f0100000000000000008310611b17577a184f03e93ff9f4daa797ed6e38ed64bf6a1f0100000000000000008381611b0d57611b0c612d33565b5b0492506040810190505b6d04ee2d6d415b85acef81000000008310611b54576d04ee2d6d415b85acef81000000008381611b4a57611b49612d33565b5b0492506020810190505b662386f26fc100008310611b8357662386f26fc100008381611b7957611b78612d33565b5b0492506010810190505b6305f5e1008310611bac576305f5e1008381611ba257611ba1612d33565b5b0492506008810190505b6127108310611bd1576127108381611bc757611bc6612d33565b5b0492506004810190505b60648310611bf45760648381611bea57611be9612d33565b5b0492506002810190505b600a8310611c03576001810190505b80915050919050565b828054611c18906123fa565b90600052602060002090601f016020900481019282611c3a5760008555611c81565b82601f10611c5357805160ff1916838001178555611c81565b82800160010185558215611c81579182015b82811115611c80578251825591602001919060010190611c65565b5b509050611c8e9190611c92565b5090565b5b80821115611cab576000816000905550600101611c93565b5090565b6000604051905090565b600080fd5b600080fd5b60007fffffffff0000000000000000000000000000000000000000000000000000000082169050919050565b611cf881611cc3565b8114611d0357600080fd5b50565b600081359050611d1581611cef565b92915050565b600060208284031215611d3157611d30611cb9565b5b6000611d3f84828501611d06565b91505092915050565b60008115159050919050565b611d5d81611d48565b82525050565b6000602082019050611d786000830184611d54565b92915050565b600081519050919050565b600082825260208201905092915050565b60005b83811015611db8578082015181840152602081019050611d9d565b83811115611dc7576000848401525b50505050565b6000601f19601f8301169050919050565b6000611de982611d7e565b611df38185611d89565b9350611e03818560208601611d9a565b611e0c81611dcd565b840191505092915050565b60006020820190508181036000830152611e318184611dde565b905092915050565b6000819050919050565b611e4c81611e39565b8114611e5757600080fd5b50565b600081359050611e6981611e43565b92915050565b600060208284031215611e8557611e84611cb9565b5b6000611e9384828501611e5a565b91505092915050565b600073ffffffffffffffffffffffffffffffffffffffff82169050919050565b6000611ec782611e9c565b9050919050565b611ed781611ebc565b82525050565b6000602082019050611ef26000830184611ece565b92915050565b611f0181611ebc565b8114611f0c57600080fd5b50565b600081359050611f1e81611ef8565b92915050565b60008060408385031215611f3b57611f3a611cb9565b5b6000611f4985828601611f0f565b9250506020611f5a85828601611e5a565b9150509250929050565b600080600060608486031215611f7d57611f7c611cb9565b5b6000611f8b86828701611f0f565b9350506020611f9c86828701611f0f565b9250506040611fad86828701611e5a565b9150509250925092565b600060208284031215611fcd57611fcc611cb9565b5b6000611fdb84828501611f0f565b91505092915050565b611fed81611e39565b82525050565b60006020820190506120086000830184611fe4565b92915050565b600080fd5b600080fd5b7f4e487b7100000000000000000000000000000000000000000000000000000000600052604160045260246000fd5b61205082611dcd565b810181811067ffffffffffffffff8211171561206f5761206e612018565b5b80604052505050565b6000612082611caf565b905061208e8282612047565b919050565b600067ffffffffffffffff8211156120ae576120ad612018565b5b6120b782611dcd565b9050602081019050919050565b82818337600083830152505050565b60006120e66120e184612093565b612078565b90508281526020810184848401111561210257612101612013565b5b61210d8482856120c4565b509392505050565b600082601f83011261212a5761212961200e565b5b813561213a8482602086016120d3565b91505092915050565b6000806040838503121561215a57612159611cb9565b5b600061216885828601611f0f565b925050602083013567ffffffffffffffff81111561218957612188611cbe565b5b61219585828601612115565b9150509250929050565b6121a881611d48565b81146121b357600080fd5b50565b6000813590506121c58161219f565b92915050565b600080604083850312156121e2576121e1611cb9565b5b60006121f085828601611f0f565b9250506020612201858286016121b6565b9150509250929050565b600067ffffffffffffffff82111561222657612225612018565b5b61222f82611dcd565b9050602081019050919050565b600061224f61224a8461220b565b612078565b90508281526020810184848401111561226b5761226a612013565b5b6122768482856120c4565b509392505050565b600082601f8301126122935761229261200e565b5b81356122a384826020860161223c565b91505092915050565b600080600080608085870312156122c6576122c5611cb9565b5b60006122d487828801611f0f565b94505060206122e587828801611f0f565b93505060406122f687828801611e5a565b925050606085013567ffffffffffffffff81111561231757612316611cbe565b5b6123238782880161227e565b91505092959194509250565b6000806040838503121561234657612345611cb9565b5b600061235485828601611e5a565b925050602083013567ffffffffffffffff81111561237557612374611cbe565b5b61238185828601612115565b9150509250929050565b600080604083850312156123a2576123a1611cb9565b5b60006123b085828601611f0f565b92505060206123c185828601611f0f565b9150509250929050565b7f4e487b7100000000000000000000000000000000000000000000000000000000600052602260045260246000fd5b6000600282049050600182168061241257607f821691505b602082108103612425576124246123cb565b5b50919050565b7f4552433732313a20617070726f76616c20746f2063757272656e74206f776e6560008201527f7200000000000000000000000000000000000000000000000000000000000000602082015250565b6000612487602183611d89565b91506124928261242b565b604082019050919050565b600060208201905081810360008301526124b68161247a565b9050919050565b7f4552433732313a20617070726f76652063616c6c6572206973206e6f7420746f60008201527f6b656e206f776e6572206f7220617070726f76656420666f7220616c6c000000602082015250565b6000612519603d83611d89565b9150612524826124bd565b604082019050919050565b600060208201905081810360008301526125488161250c565b9050919050565b7f4552433732313a2063616c6c6572206973206e6f7420746f6b656e206f776e6560008201527f72206f7220617070726f76656400000000000000000000000000000000000000602082015250565b60006125ab602d83611d89565b91506125b68261254f565b604082019050919050565b600060208201905081810360008301526125da8161259e565b9050919050565b7f4552433732313a20696e76616c696420746f6b656e2049440000000000000000600082015250565b6000612617601883611d89565b9150612622826125e1565b602082019050919050565b600060208201905081810360008301526126468161260a565b9050919050565b7f4552433732313a2061646472657373207a65726f206973206e6f74206120766160008201527f6c6964206f776e65720000000000000000000000000000000000000000000000602082015250565b60006126a9602983611d89565b91506126b48261264d565b604082019050919050565b600060208201905081810360008301526126d88161269c565b9050919050565b60008190508160005260206000209050919050565b60008154612701816123fa565b61270b8186611d89565b9450600182166000811461272657600181146127385761276b565b60ff198316865260208601935061276b565b612741856126df565b60005b8381101561276357815481890152600182019150602081019050612744565b808801955050505b50505092915050565b6000604082019050818103600083015261278e81856126f4565b905081810360208301526127a28184611dde565b90509392505050565b600081905092915050565b60006127c182611d7e565b6127cb81856127ab565b93506127db818560208601611d9a565b80840191505092915050565b60006127f382856127b6565b91506127ff82846127b6565b91508190509392505050565b7f4552433732313a207472616e736665722066726f6d20696e636f72726563742060008201527f6f776e6572000000000000000000000000000000000000000000000000000000602082015250565b6000612867602583611d89565b91506128728261280b565b604082019050919050565b600060208201905081810360008301526128968161285a565b9050919050565b7f4552433732313a207472616e7366657220746f20746865207a65726f2061646460008201527f7265737300000000000000000000000000000000000000000000000000000000602082015250565b60006128f9602483611d89565b91506129048261289d565b604082019050919050565b60006020820190508181036000830152612928816128ec565b9050919050565b7f4552433732313a206d696e7420746f20746865207a65726f2061646472657373600082015250565b6000612965602083611d89565b91506129708261292f565b602082019050919050565b6000602082019050818103600083015261299481612958565b9050919050565b7f4552433732313a20746f6b656e20616c7265616479206d696e74656400000000600082015250565b60006129d1601c83611d89565b91506129dc8261299b565b602082019050919050565b60006020820190508181036000830152612a00816129c4565b9050919050565b7f45524337323155524953746f726167653a2055524920736574206f66206e6f6e60008201527f6578697374656e7420746f6b656e000000000000000000000000000000000000602082015250565b6000612a63602e83611d89565b9150612a6e82612a07565b604082019050919050565b60006020820190508181036000830152612a9281612a56565b9050919050565b7f4552433732313a20617070726f766520746f2063616c6c657200000000000000600082015250565b6000612acf601983611d89565b9150612ada82612a99565b602082019050919050565b60006020820190508181036000830152612afe81612ac2565b9050919050565b7f4552433732313a207472616e7366657220746f206e6f6e20455243373231526560008201527f63656976657220696d706c656d656e7465720000000000000000000000000000602082015250565b6000612b61603283611d89565b9150612b6c82612b05565b604082019050919050565b60006020820190508181036000830152612b9081612b54565b9050919050565b7f4e487b7100000000000000000000000000000000000000000000000000000000600052601160045260246000fd5b6000612bd182611e39565b9150612bdc83611e39565b925082821015612bef57612bee612b97565b5b828203905092915050565b6000612c0582611e39565b9150612c1083611e39565b9250827fffffffffffffffffffffffffffffffffffffffffffffffffffffffffffffffff03821115612c4557612c44612b97565b5b828201905092915050565b600081519050919050565b600082825260208201905092915050565b6000612c7782612c50565b612c818185612c5b565b9350612c91818560208601611d9a565b612c9a81611dcd565b840191505092915050565b6000608082019050612cba6000830187611ece565b612cc76020830186611ece565b612cd46040830185611fe4565b8181036060830152612ce68184612c6c565b905095945050505050565b600081519050612d0081611cef565b92915050565b600060208284031215612d1c57612d1b611cb9565b5b6000612d2a84828501612cf1565b91505092915050565b7f4e487b7100000000000000000000000000000000000000000000000000000000600052601260045260246000fdfea2646970667358221220795787dc822fc58d589559abf8bedebc3d514a14a4b7c7442c9c69ea54963edb64736f6c634300080d0033",
  "immutableReferences": {},
  "source": "pragma solidity ^0.8.0;\n\nimport \"@openzeppelin/contracts/token/ERC721/extensions/ERC721URIStorage.sol\";\nimport \"./IERC1948.sol\";\nimport \"./ERC721.sol\";\n\ncontract ERC1948 is IERC1948, MetaverseModel {\n\n  mapping(uint256 => string) data;\n\n  /**\n   * @dev See `IERC1948.readData`.\n   *\n   * Requirements:\n   *\n   * - `tokenId` needs to exist.\n   */\n  function readData(uint256 tokenId) external view override returns (string memory) {\n    require(_exists(tokenId));\n    return data[tokenId];\n  }\n\n  /**\n   * @dev See `IERC1948.writeData`.\n   *\n   * Requirements:\n   *\n   * - `msg.sender` needs to be owner of `tokenId`.\n   */\n  function writeData(uint256 tokenId, string memory newData) override external {\n    require(msg.sender == ownerOf(tokenId));\n    emit DataUpdated(tokenId, data[tokenId], newData);\n      _setTokenURI(tokenId, newData);\n    data[tokenId] = newData;\n  }\n\n}",
  "sourcePath": "/home/oshikawa/nft-metaverse/contracts/ERC1948.sol",
  "compiler": {
    "name": "solc",
    "version": "0.8.13+commit.abaa5c0e.Emscripten.clang"
  },
  "schemaVersion": "3.4.11",
  "updatedAt": "2023-01-30T09:41:22.324Z",
  "devdoc": {
    "kind": "dev",
    "methods": {
      "approve(address,uint256)": {
        "details": "See {IERC721-approve}."
      },
      "balanceOf(address)": {
        "details": "See {IERC721-balanceOf}."
      },
      "getApproved(uint256)": {
        "details": "See {IERC721-getApproved}."
      },
      "isApprovedForAll(address,address)": {
        "details": "See {IERC721-isApprovedForAll}."
      },
      "name()": {
        "details": "See {IERC721Metadata-name}."
      },
      "ownerOf(uint256)": {
        "details": "See {IERC721-ownerOf}."
      },
      "readData(uint256)": {
        "details": "See `IERC1948.readData`. Requirements: - `tokenId` needs to exist."
      },
      "safeTransferFrom(address,address,uint256)": {
        "details": "See {IERC721-safeTransferFrom}."
      },
      "safeTransferFrom(address,address,uint256,bytes)": {
        "details": "See {IERC721-safeTransferFrom}."
      },
      "setApprovalForAll(address,bool)": {
        "details": "See {IERC721-setApprovalForAll}."
      },
      "supportsInterface(bytes4)": {
        "details": "See {IERC165-supportsInterface}."
      },
      "symbol()": {
        "details": "See {IERC721Metadata-symbol}."
      },
      "tokenURI(uint256)": {
        "details": "See {IERC721Metadata-tokenURI}."
      },
      "transferFrom(address,address,uint256)": {
        "details": "See {IERC721-transferFrom}."
      },
      "writeData(uint256,string)": {
        "details": "See `IERC1948.writeData`. Requirements: - `msg.sender` needs to be owner of `tokenId`."
      }
    },
    "version": 1
  },
  "userdoc": {
    "kind": "user",
    "methods": {},
    "version": 1
  }
}