{
  "contractName": "MetaverseModel",
  "abi": [
    {
      "inputs": [],
      "stateMutability": "nonpayable",
      "type": "constructor"
    },
    {
      "anonymous": false,
      "inputs": [
        {
          "indexed": true,
          "internalType": "address",
          "name": "owner",
          "type": "address"
        },
        {
          "indexed": true,
          "internalType": "address",
          "name": "approved",
          "type": "address"
        },
        {
          "indexed": true,
          "internalType": "uint256",
          "name": "tokenId",
          "type": "uint256"
        }
      ],
      "name": "Approval",
      "type": "event"
    },
    {
      "anonymous": false,
      "inputs": [
        {
          "indexed": true,
          "internalType": "address",
          "name": "owner",
          "type": "address"
        },
        {
          "indexed": true,
          "internalType": "address",
          "name": "operator",
          "type": "address"
        },
        {
          "indexed": false,
          "internalType": "bool",
          "name": "approved",
          "type": "bool"
        }
      ],
      "name": "ApprovalForAll",
      "type": "event"
    },
    {
      "anonymous": false,
      "inputs": [
        {
          "indexed": true,
          "internalType": "address",
          "name": "from",
          "type": "address"
        },
        {
          "indexed": true,
          "internalType": "address",
          "name": "to",
          "type": "address"
        },
        {
          "indexed": true,
          "internalType": "uint256",
          "name": "tokenId",
          "type": "uint256"
        }
      ],
      "name": "Transfer",
      "type": "event"
    },
    {
      "inputs": [
        {
          "internalType": "address",
          "name": "to",
          "type": "address"
        },
        {
          "internalType": "uint256",
          "name": "tokenId",
          "type": "uint256"
        }
      ],
      "name": "approve",
      "outputs": [],
      "stateMutability": "nonpayable",
      "type": "function"
    },
    {
      "inputs": [
        {
          "internalType": "address",
          "name": "owner",
          "type": "address"
        }
      ],
      "name": "balanceOf",
      "outputs": [
        {
          "internalType": "uint256",
          "name": "",
          "type": "uint256"
        }
      ],
      "stateMutability": "view",
      "type": "function"
    },
    {
      "inputs": [
        {
          "internalType": "uint256",
          "name": "tokenId",
          "type": "uint256"
        }
      ],
      "name": "getApproved",
      "outputs": [
        {
          "internalType": "address",
          "name": "",
          "type": "address"
        }
      ],
      "stateMutability": "view",
      "type": "function"
    },
    {
      "inputs": [
        {
          "internalType": "address",
          "name": "owner",
          "type": "address"
        },
        {
          "internalType": "address",
          "name": "operator",
          "type": "address"
        }
      ],
      "name": "isApprovedForAll",
      "outputs": [
        {
          "internalType": "bool",
          "name": "",
          "type": "bool"
        }
      ],
      "stateMutability": "view",
      "type": "function"
    },
    {
      "inputs": [],
      "name": "name",
      "outputs": [
        {
          "internalType": "string",
          "name": "",
          "type": "string"
        }
      ],
      "stateMutability": "view",
      "type": "function"
    },
    {
      "inputs": [
        {
          "internalType": "uint256",
          "name": "tokenId",
          "type": "uint256"
        }
      ],
      "name": "ownerOf",
      "outputs": [
        {
          "internalType": "address",
          "name": "",
          "type": "address"
        }
      ],
      "stateMutability": "view",
      "type": "function"
    },
    {
      "inputs": [
        {
          "internalType": "address",
          "name": "from",
          "type": "address"
        },
        {
          "internalType": "address",
          "name": "to",
          "type": "address"
        },
        {
          "internalType": "uint256",
          "name": "tokenId",
          "type": "uint256"
        }
      ],
      "name": "safeTransferFrom",
      "outputs": [],
      "stateMutability": "nonpayable",
      "type": "function"
    },
    {
      "inputs": [
        {
          "internalType": "address",
          "name": "from",
          "type": "address"
        },
        {
          "internalType": "address",
          "name": "to",
          "type": "address"
        },
        {
          "internalType": "uint256",
          "name": "tokenId",
          "type": "uint256"
        },
        {
          "internalType": "bytes",
          "name": "data",
          "type": "bytes"
        }
      ],
      "name": "safeTransferFrom",
      "outputs": [],
      "stateMutability": "nonpayable",
      "type": "function"
    },
    {
      "inputs": [
        {
          "internalType": "address",
          "name": "operator",
          "type": "address"
        },
        {
          "internalType": "bool",
          "name": "approved",
          "type": "bool"
        }
      ],
      "name": "setApprovalForAll",
      "outputs": [],
      "stateMutability": "nonpayable",
      "type": "function"
    },
    {
      "inputs": [
        {
          "internalType": "bytes4",
          "name": "interfaceId",
          "type": "bytes4"
        }
      ],
      "name": "supportsInterface",
      "outputs": [
        {
          "internalType": "bool",
          "name": "",
          "type": "bool"
        }
      ],
      "stateMutability": "view",
      "type": "function"
    },
    {
      "inputs": [],
      "name": "symbol",
      "outputs": [
        {
          "internalType": "string",
          "name": "",
          "type": "string"
        }
      ],
      "stateMutability": "view",
      "type": "function"
    },
    {
      "inputs": [
        {
          "internalType": "uint256",
          "name": "tokenId",
          "type": "uint256"
        }
      ],
      "name": "tokenURI",
      "outputs": [
        {
          "internalType": "string",
          "name": "",
          "type": "string"
        }
      ],
      "stateMutability": "view",
      "type": "function"
    },
    {
      "inputs": [
        {
          "internalType": "address",
          "name": "from",
          "type": "address"
        },
        {
          "internalType": "address",
          "name": "to",
          "type": "address"
        },
        {
          "internalType": "uint256",
          "name": "tokenId",
          "type": "uint256"
        }
      ],
      "name": "transferFrom",
      "outputs": [],
      "stateMutability": "nonpayable",
      "type": "function"
    },
    {
      "inputs": [
        {
          "internalType": "address",
          "name": "player",
          "type": "address"
        },
        {
          "internalType": "string",
          "name": "tokenURI",
          "type": "string"
        }
      ],
      "name": "newItem",
      "outputs": [
        {
          "internalType": "uint256",
          "name": "",
          "type": "uint256"
        }
      ],
      "stateMutability": "nonpayable",
      "type": "function"
    },
    {
      "inputs": [],
      "name": "totalSuply",
      "outputs": [
        {
          "internalType": "uint256",
          "name": "",
          "type": "uint256"
        }
      ],
      "stateMutability": "view",
      "type": "function"
    }
  ],
  "bytecode": "0x60806040523480156200001157600080fd5b506040518060400160405280600e81526020017f4d6574617665727365546f6b656e0000000000000000000000000000000000008152506040518060400160405280600281526020017f4d54000000000000000000000000000000000000000000000000000000000000815250816000908051906020019062000096929190620000b8565b508060019080519060200190620000af929190620000b8565b505050620001cc565b828054620000c69062000197565b90600052602060002090601f016020900481019282620000ea576000855562000136565b82601f106200010557805160ff191683800117855562000136565b8280016001018555821562000136579182015b828111156200013557825182559160200191906001019062000118565b5b50905062000145919062000149565b5090565b5b80821115620001645760008160009055506001016200014a565b5090565b7f4e487b7100000000000000000000000000000000000000000000000000000000600052602260045260246000fd5b60006002820490506001821680620001b057607f821691505b602082108103620001c657620001c562000168565b5b50919050565b612a9580620001dc6000396000f3fe608060405234801561001057600080fd5b50600436106100f55760003560e01c806370a0823111610097578063a2a9679911610066578063a2a9679914610296578063b88d4fde146102b4578063c87b56dd146102d0578063e985e9c514610300576100f5565b806370a08231146101fc57806389f057611461022c57806395d89b411461025c578063a22cb4651461027a576100f5565b8063095ea7b3116100d3578063095ea7b31461017857806323b872dd1461019457806342842e0e146101b05780636352211e146101cc576100f5565b806301ffc9a7146100fa57806306fdde031461012a578063081812fc14610148575b600080fd5b610114600480360381019061010f9190611b40565b610330565b6040516101219190611b88565b60405180910390f35b610132610412565b60405161013f9190611c3c565b60405180910390f35b610162600480360381019061015d9190611c94565b6104a4565b60405161016f9190611d02565b60405180910390f35b610192600480360381019061018d9190611d49565b6104ea565b005b6101ae60048036038101906101a99190611d89565b610601565b005b6101ca60048036038101906101c59190611d89565b610661565b005b6101e660048036038101906101e19190611c94565b610681565b6040516101f39190611d02565b60405180910390f35b61021660048036038101906102119190611ddc565b610707565b6040516102239190611e18565b60405180910390f35b61024660048036038101906102419190611f68565b6107be565b6040516102539190611e18565b60405180910390f35b6102646107f6565b6040516102719190611c3c565b60405180910390f35b610294600480360381019061028f9190611ff0565b610888565b005b61029e61089e565b6040516102ab9190611e18565b60405180910390f35b6102ce60048036038101906102c991906120d1565b6108b4565b005b6102ea60048036038101906102e59190611c94565b610916565b6040516102f79190611c3c565b60405180910390f35b61031a60048036038101906103159190612154565b610a28565b6040516103279190611b88565b60405180910390f35b60007f80ac58cd000000000000000000000000000000000000000000000000000000007bffffffffffffffffffffffffffffffffffffffffffffffffffffffff1916827bffffffffffffffffffffffffffffffffffffffffffffffffffffffff191614806103fb57507f5b5e139f000000000000000000000000000000000000000000000000000000007bffffffffffffffffffffffffffffffffffffffffffffffffffffffff1916827bffffffffffffffffffffffffffffffffffffffffffffffffffffffff1916145b8061040b575061040a82610abc565b5b9050919050565b606060008054610421906121c3565b80601f016020809104026020016040519081016040528092919081815260200182805461044d906121c3565b801561049a5780601f1061046f5761010080835404028352916020019161049a565b820191906000526020600020905b81548152906001019060200180831161047d57829003601f168201915b5050505050905090565b60006104af82610b26565b6004600083815260200190815260200160002060009054906101000a900473ffffffffffffffffffffffffffffffffffffffff169050919050565b60006104f582610681565b90508073ffffffffffffffffffffffffffffffffffffffff168373ffffffffffffffffffffffffffffffffffffffff1603610565576040517f08c379a000000000000000000000000000000000000000000000000000000000815260040161055c90612266565b60405180910390fd5b8073ffffffffffffffffffffffffffffffffffffffff16610584610b71565b73ffffffffffffffffffffffffffffffffffffffff1614806105b357506105b2816105ad610b71565b610a28565b5b6105f2576040517f08c379a00000000000000000000000000000000000000000000000000000000081526004016105e9906122f8565b60405180910390fd5b6105fc8383610b79565b505050565b61061261060c610b71565b82610c32565b610651576040517f08c379a00000000000000000000000000000000000000000000000000000000081526004016106489061238a565b60405180910390fd5b61065c838383610cc7565b505050565b61067c838383604051806020016040528060008152506108b4565b505050565b60008061068d83610fc0565b9050600073ffffffffffffffffffffffffffffffffffffffff168173ffffffffffffffffffffffffffffffffffffffff16036106fe576040517f08c379a00000000000000000000000000000000000000000000000000000000081526004016106f5906123f6565b60405180910390fd5b80915050919050565b60008073ffffffffffffffffffffffffffffffffffffffff168273ffffffffffffffffffffffffffffffffffffffff1603610777576040517f08c379a000000000000000000000000000000000000000000000000000000000815260040161076e90612488565b60405180910390fd5b600360008373ffffffffffffffffffffffffffffffffffffffff1673ffffffffffffffffffffffffffffffffffffffff168152602001908152602001600020549050919050565b60006107ca6007610ffd565b60006107d66007611013565b90506107e28482611021565b6107ec818461123e565b8091505092915050565b606060018054610805906121c3565b80601f0160208091040260200160405190810160405280929190818152602001828054610831906121c3565b801561087e5780601f106108535761010080835404028352916020019161087e565b820191906000526020600020905b81548152906001019060200180831161086157829003601f168201915b5050505050905090565b61089a610893610b71565b83836112b2565b5050565b6000806108ab6007611013565b90508091505090565b6108c56108bf610b71565b83610c32565b610904576040517f08c379a00000000000000000000000000000000000000000000000000000000081526004016108fb9061238a565b60405180910390fd5b6109108484848461141e565b50505050565b606061092182610b26565b6000600660008481526020019081526020016000208054610941906121c3565b80601f016020809104026020016040519081016040528092919081815260200182805461096d906121c3565b80156109ba5780601f1061098f576101008083540402835291602001916109ba565b820191906000526020600020905b81548152906001019060200180831161099d57829003601f168201915b5050505050905060006109cb61147a565b905060008151036109e0578192505050610a23565b600082511115610a155780826040516020016109fd9291906124e4565b60405160208183030381529060405292505050610a23565b610a1e84611491565b925050505b919050565b6000600560008473ffffffffffffffffffffffffffffffffffffffff1673ffffffffffffffffffffffffffffffffffffffff16815260200190815260200160002060008373ffffffffffffffffffffffffffffffffffffffff1673ffffffffffffffffffffffffffffffffffffffff16815260200190815260200160002060009054906101000a900460ff16905092915050565b60007f01ffc9a7000000000000000000000000000000000000000000000000000000007bffffffffffffffffffffffffffffffffffffffffffffffffffffffff1916827bffffffffffffffffffffffffffffffffffffffffffffffffffffffff1916149050919050565b610b2f816114f9565b610b6e576040517f08c379a0000000000000000000000000000000000000000000000000000000008152600401610b65906123f6565b60405180910390fd5b50565b600033905090565b816004600083815260200190815260200160002060006101000a81548173ffffffffffffffffffffffffffffffffffffffff021916908373ffffffffffffffffffffffffffffffffffffffff160217905550808273ffffffffffffffffffffffffffffffffffffffff16610bec83610681565b73ffffffffffffffffffffffffffffffffffffffff167f8c5be1e5ebec7d5bd14f71427d1e84f3dd0314c0f7b2291e5b200ac8c7c3b92560405160405180910390a45050565b600080610c3e83610681565b90508073ffffffffffffffffffffffffffffffffffffffff168473ffffffffffffffffffffffffffffffffffffffff161480610c805750610c7f8185610a28565b5b80610cbe57508373ffffffffffffffffffffffffffffffffffffffff16610ca6846104a4565b73ffffffffffffffffffffffffffffffffffffffff16145b91505092915050565b8273ffffffffffffffffffffffffffffffffffffffff16610ce782610681565b73ffffffffffffffffffffffffffffffffffffffff1614610d3d576040517f08c379a0000000000000000000000000000000000000000000000000000000008152600401610d349061257a565b60405180910390fd5b600073ffffffffffffffffffffffffffffffffffffffff168273ffffffffffffffffffffffffffffffffffffffff1603610dac576040517f08c379a0000000000000000000000000000000000000000000000000000000008152600401610da39061260c565b60405180910390fd5b610db9838383600161153a565b8273ffffffffffffffffffffffffffffffffffffffff16610dd982610681565b73ffffffffffffffffffffffffffffffffffffffff1614610e2f576040517f08c379a0000000000000000000000000000000000000000000000000000000008152600401610e269061257a565b60405180910390fd5b6004600082815260200190815260200160002060006101000a81549073ffffffffffffffffffffffffffffffffffffffff02191690556001600360008573ffffffffffffffffffffffffffffffffffffffff1673ffffffffffffffffffffffffffffffffffffffff168152602001908152602001600020600082825403925050819055506001600360008473ffffffffffffffffffffffffffffffffffffffff1673ffffffffffffffffffffffffffffffffffffffff16815260200190815260200160002060008282540192505081905550816002600083815260200190815260200160002060006101000a81548173ffffffffffffffffffffffffffffffffffffffff021916908373ffffffffffffffffffffffffffffffffffffffff160217905550808273ffffffffffffffffffffffffffffffffffffffff168473ffffffffffffffffffffffffffffffffffffffff167fddf252ad1be2c89b69c2b068fc378daa952ba7f163c4a11628f55a4df523b3ef60405160405180910390a4610fbb8383836001611660565b505050565b60006002600083815260200190815260200160002060009054906101000a900473ffffffffffffffffffffffffffffffffffffffff169050919050565b6001816000016000828254019250508190555050565b600081600001549050919050565b600073ffffffffffffffffffffffffffffffffffffffff168273ffffffffffffffffffffffffffffffffffffffff1603611090576040517f08c379a000000000000000000000000000000000000000000000000000000000815260040161108790612678565b60405180910390fd5b611099816114f9565b156110d9576040517f08c379a00000000000000000000000000000000000000000000000000000000081526004016110d0906126e4565b60405180910390fd5b6110e760008383600161153a565b6110f0816114f9565b15611130576040517f08c379a0000000000000000000000000000000000000000000000000000000008152600401611127906126e4565b60405180910390fd5b6001600360008473ffffffffffffffffffffffffffffffffffffffff1673ffffffffffffffffffffffffffffffffffffffff16815260200190815260200160002060008282540192505081905550816002600083815260200190815260200160002060006101000a81548173ffffffffffffffffffffffffffffffffffffffff021916908373ffffffffffffffffffffffffffffffffffffffff160217905550808273ffffffffffffffffffffffffffffffffffffffff16600073ffffffffffffffffffffffffffffffffffffffff167fddf252ad1be2c89b69c2b068fc378daa952ba7f163c4a11628f55a4df523b3ef60405160405180910390a461123a600083836001611660565b5050565b611247826114f9565b611286576040517f08c379a000000000000000000000000000000000000000000000000000000000815260040161127d90612776565b60405180910390fd5b806006600084815260200190815260200160002090805190602001906112ad929190611a31565b505050565b8173ffffffffffffffffffffffffffffffffffffffff168373ffffffffffffffffffffffffffffffffffffffff1603611320576040517f08c379a0000000000000000000000000000000000000000000000000000000008152600401611317906127e2565b60405180910390fd5b80600560008573ffffffffffffffffffffffffffffffffffffffff1673ffffffffffffffffffffffffffffffffffffffff16815260200190815260200160002060008473ffffffffffffffffffffffffffffffffffffffff1673ffffffffffffffffffffffffffffffffffffffff16815260200190815260200160002060006101000a81548160ff0219169083151502179055508173ffffffffffffffffffffffffffffffffffffffff168373ffffffffffffffffffffffffffffffffffffffff167f17307eab39ab6107e8899845ad3d59bd9653f200f220920489ca2b5937696c31836040516114119190611b88565b60405180910390a3505050565b611429848484610cc7565b61143584848484611666565b611474576040517f08c379a000000000000000000000000000000000000000000000000000000000815260040161146b90612874565b60405180910390fd5b50505050565b606060405180602001604052806000815250905090565b606061149c82610b26565b60006114a661147a565b905060008151116114c657604051806020016040528060008152506114f1565b806114d0846117ed565b6040516020016114e19291906124e4565b6040516020818303038152906040525b915050919050565b60008073ffffffffffffffffffffffffffffffffffffffff1661151b83610fc0565b73ffffffffffffffffffffffffffffffffffffffff1614159050919050565b600181111561165a57600073ffffffffffffffffffffffffffffffffffffffff168473ffffffffffffffffffffffffffffffffffffffff16146115ce5780600360008673ffffffffffffffffffffffffffffffffffffffff1673ffffffffffffffffffffffffffffffffffffffff16815260200190815260200160002060008282546115c691906128c3565b925050819055505b600073ffffffffffffffffffffffffffffffffffffffff168373ffffffffffffffffffffffffffffffffffffffff16146116595780600360008573ffffffffffffffffffffffffffffffffffffffff1673ffffffffffffffffffffffffffffffffffffffff168152602001908152602001600020600082825461165191906128f7565b925050819055505b5b50505050565b50505050565b60006116878473ffffffffffffffffffffffffffffffffffffffff166118bb565b156117e0578373ffffffffffffffffffffffffffffffffffffffff1663150b7a026116b0610b71565b8786866040518563ffffffff1660e01b81526004016116d294939291906129a2565b6020604051808303816000875af192505050801561170e57506040513d601f19601f8201168201806040525081019061170b9190612a03565b60015b611790573d806000811461173e576040519150601f19603f3d011682016040523d82523d6000602084013e611743565b606091505b506000815103611788576040517f08c379a000000000000000000000000000000000000000000000000000000000815260040161177f90612874565b60405180910390fd5b805181602001fd5b63150b7a0260e01b7bffffffffffffffffffffffffffffffffffffffffffffffffffffffff1916817bffffffffffffffffffffffffffffffffffffffffffffffffffffffff1916149150506117e5565b600190505b949350505050565b6060600060016117fc846118de565b01905060008167ffffffffffffffff81111561181b5761181a611e3d565b5b6040519080825280601f01601f19166020018201604052801561184d5781602001600182028036833780820191505090505b509050600082602001820190505b6001156118b0578080600190039150507f3031323334353637383961626364656600000000000000000000000000000000600a86061a8153600a85816118a4576118a3612a30565b5b0494506000850361185b575b819350505050919050565b6000808273ffffffffffffffffffffffffffffffffffffffff163b119050919050565b600080600090507a184f03e93ff9f4daa797ed6e38ed64bf6a1f010000000000000000831061193c577a184f03e93ff9f4daa797ed6e38ed64bf6a1f010000000000000000838161193257611931612a30565b5b0492506040810190505b6d04ee2d6d415b85acef81000000008310611979576d04ee2d6d415b85acef8100000000838161196f5761196e612a30565b5b0492506020810190505b662386f26fc1000083106119a857662386f26fc10000838161199e5761199d612a30565b5b0492506010810190505b6305f5e10083106119d1576305f5e10083816119c7576119c6612a30565b5b0492506008810190505b61271083106119f65761271083816119ec576119eb612a30565b5b0492506004810190505b60648310611a195760648381611a0f57611a0e612a30565b5b0492506002810190505b600a8310611a28576001810190505b80915050919050565b828054611a3d906121c3565b90600052602060002090601f016020900481019282611a5f5760008555611aa6565b82601f10611a7857805160ff1916838001178555611aa6565b82800160010185558215611aa6579182015b82811115611aa5578251825591602001919060010190611a8a565b5b509050611ab39190611ab7565b5090565b5b80821115611ad0576000816000905550600101611ab8565b5090565b6000604051905090565b600080fd5b600080fd5b60007fffffffff0000000000000000000000000000000000000000000000000000000082169050919050565b611b1d81611ae8565b8114611b2857600080fd5b50565b600081359050611b3a81611b14565b92915050565b600060208284031215611b5657611b55611ade565b5b6000611b6484828501611b2b565b91505092915050565b60008115159050919050565b611b8281611b6d565b82525050565b6000602082019050611b9d6000830184611b79565b92915050565b600081519050919050565b600082825260208201905092915050565b60005b83811015611bdd578082015181840152602081019050611bc2565b83811115611bec576000848401525b50505050565b6000601f19601f8301169050919050565b6000611c0e82611ba3565b611c188185611bae565b9350611c28818560208601611bbf565b611c3181611bf2565b840191505092915050565b60006020820190508181036000830152611c568184611c03565b905092915050565b6000819050919050565b611c7181611c5e565b8114611c7c57600080fd5b50565b600081359050611c8e81611c68565b92915050565b600060208284031215611caa57611ca9611ade565b5b6000611cb884828501611c7f565b91505092915050565b600073ffffffffffffffffffffffffffffffffffffffff82169050919050565b6000611cec82611cc1565b9050919050565b611cfc81611ce1565b82525050565b6000602082019050611d176000830184611cf3565b92915050565b611d2681611ce1565b8114611d3157600080fd5b50565b600081359050611d4381611d1d565b92915050565b60008060408385031215611d6057611d5f611ade565b5b6000611d6e85828601611d34565b9250506020611d7f85828601611c7f565b9150509250929050565b600080600060608486031215611da257611da1611ade565b5b6000611db086828701611d34565b9350506020611dc186828701611d34565b9250506040611dd286828701611c7f565b9150509250925092565b600060208284031215611df257611df1611ade565b5b6000611e0084828501611d34565b91505092915050565b611e1281611c5e565b82525050565b6000602082019050611e2d6000830184611e09565b92915050565b600080fd5b600080fd5b7f4e487b7100000000000000000000000000000000000000000000000000000000600052604160045260246000fd5b611e7582611bf2565b810181811067ffffffffffffffff82111715611e9457611e93611e3d565b5b80604052505050565b6000611ea7611ad4565b9050611eb38282611e6c565b919050565b600067ffffffffffffffff821115611ed357611ed2611e3d565b5b611edc82611bf2565b9050602081019050919050565b82818337600083830152505050565b6000611f0b611f0684611eb8565b611e9d565b905082815260208101848484011115611f2757611f26611e38565b5b611f32848285611ee9565b509392505050565b600082601f830112611f4f57611f4e611e33565b5b8135611f5f848260208601611ef8565b91505092915050565b60008060408385031215611f7f57611f7e611ade565b5b6000611f8d85828601611d34565b925050602083013567ffffffffffffffff811115611fae57611fad611ae3565b5b611fba85828601611f3a565b9150509250929050565b611fcd81611b6d565b8114611fd857600080fd5b50565b600081359050611fea81611fc4565b92915050565b6000806040838503121561200757612006611ade565b5b600061201585828601611d34565b925050602061202685828601611fdb565b9150509250929050565b600067ffffffffffffffff82111561204b5761204a611e3d565b5b61205482611bf2565b9050602081019050919050565b600061207461206f84612030565b611e9d565b9050828152602081018484840111156120905761208f611e38565b5b61209b848285611ee9565b509392505050565b600082601f8301126120b8576120b7611e33565b5b81356120c8848260208601612061565b91505092915050565b600080600080608085870312156120eb576120ea611ade565b5b60006120f987828801611d34565b945050602061210a87828801611d34565b935050604061211b87828801611c7f565b925050606085013567ffffffffffffffff81111561213c5761213b611ae3565b5b612148878288016120a3565b91505092959194509250565b6000806040838503121561216b5761216a611ade565b5b600061217985828601611d34565b925050602061218a85828601611d34565b9150509250929050565b7f4e487b7100000000000000000000000000000000000000000000000000000000600052602260045260246000fd5b600060028204905060018216806121db57607f821691505b6020821081036121ee576121ed612194565b5b50919050565b7f4552433732313a20617070726f76616c20746f2063757272656e74206f776e6560008201527f7200000000000000000000000000000000000000000000000000000000000000602082015250565b6000612250602183611bae565b915061225b826121f4565b604082019050919050565b6000602082019050818103600083015261227f81612243565b9050919050565b7f4552433732313a20617070726f76652063616c6c6572206973206e6f7420746f60008201527f6b656e206f776e6572206f7220617070726f76656420666f7220616c6c000000602082015250565b60006122e2603d83611bae565b91506122ed82612286565b604082019050919050565b60006020820190508181036000830152612311816122d5565b9050919050565b7f4552433732313a2063616c6c6572206973206e6f7420746f6b656e206f776e6560008201527f72206f7220617070726f76656400000000000000000000000000000000000000602082015250565b6000612374602d83611bae565b915061237f82612318565b604082019050919050565b600060208201905081810360008301526123a381612367565b9050919050565b7f4552433732313a20696e76616c696420746f6b656e2049440000000000000000600082015250565b60006123e0601883611bae565b91506123eb826123aa565b602082019050919050565b6000602082019050818103600083015261240f816123d3565b9050919050565b7f4552433732313a2061646472657373207a65726f206973206e6f74206120766160008201527f6c6964206f776e65720000000000000000000000000000000000000000000000602082015250565b6000612472602983611bae565b915061247d82612416565b604082019050919050565b600060208201905081810360008301526124a181612465565b9050919050565b600081905092915050565b60006124be82611ba3565b6124c881856124a8565b93506124d8818560208601611bbf565b80840191505092915050565b60006124f082856124b3565b91506124fc82846124b3565b91508190509392505050565b7f4552433732313a207472616e736665722066726f6d20696e636f72726563742060008201527f6f776e6572000000000000000000000000000000000000000000000000000000602082015250565b6000612564602583611bae565b915061256f82612508565b604082019050919050565b6000602082019050818103600083015261259381612557565b9050919050565b7f4552433732313a207472616e7366657220746f20746865207a65726f2061646460008201527f7265737300000000000000000000000000000000000000000000000000000000602082015250565b60006125f6602483611bae565b91506126018261259a565b604082019050919050565b60006020820190508181036000830152612625816125e9565b9050919050565b7f4552433732313a206d696e7420746f20746865207a65726f2061646472657373600082015250565b6000612662602083611bae565b915061266d8261262c565b602082019050919050565b6000602082019050818103600083015261269181612655565b9050919050565b7f4552433732313a20746f6b656e20616c7265616479206d696e74656400000000600082015250565b60006126ce601c83611bae565b91506126d982612698565b602082019050919050565b600060208201905081810360008301526126fd816126c1565b9050919050565b7f45524337323155524953746f726167653a2055524920736574206f66206e6f6e60008201527f6578697374656e7420746f6b656e000000000000000000000000000000000000602082015250565b6000612760602e83611bae565b915061276b82612704565b604082019050919050565b6000602082019050818103600083015261278f81612753565b9050919050565b7f4552433732313a20617070726f766520746f2063616c6c657200000000000000600082015250565b60006127cc601983611bae565b91506127d782612796565b602082019050919050565b600060208201905081810360008301526127fb816127bf565b9050919050565b7f4552433732313a207472616e7366657220746f206e6f6e20455243373231526560008201527f63656976657220696d706c656d656e7465720000000000000000000000000000602082015250565b600061285e603283611bae565b915061286982612802565b604082019050919050565b6000602082019050818103600083015261288d81612851565b9050919050565b7f4e487b7100000000000000000000000000000000000000000000000000000000600052601160045260246000fd5b60006128ce82611c5e565b91506128d983611c5e565b9250828210156128ec576128eb612894565b5b828203905092915050565b600061290282611c5e565b915061290d83611c5e565b9250827fffffffffffffffffffffffffffffffffffffffffffffffffffffffffffffffff0382111561294257612941612894565b5b828201905092915050565b600081519050919050565b600082825260208201905092915050565b60006129748261294d565b61297e8185612958565b935061298e818560208601611bbf565b61299781611bf2565b840191505092915050565b60006080820190506129b76000830187611cf3565b6129c46020830186611cf3565b6129d16040830185611e09565b81810360608301526129e38184612969565b905095945050505050565b6000815190506129fd81611b14565b92915050565b600060208284031215612a1957612a18611ade565b5b6000612a27848285016129ee565b91505092915050565b7f4e487b7100000000000000000000000000000000000000000000000000000000600052601260045260246000fdfea264697066735822122003176f5221a052168fce8de6dfff199cd82c0bd45fabc618e1c355f28ab4ba8664736f6c634300080d0033",
  "immutableReferences": {},
  "source": "pragma solidity ^0.8.0;\n\nimport \"@openzeppelin/contracts/token/ERC721/extensions/ERC721URIStorage.sol\";\nimport \"@openzeppelin/contracts/utils/Counters.sol\";\n\ncontract MetaverseModel is ERC721URIStorage {\n    using Counters for Counters.Counter;\n    Counters.Counter private _tokenIds;\n\n    constructor() ERC721(\"MetaverseToken\", \"MT\") {}\n\n    function newItem(address player, string memory tokenURI)\n        public\n        returns (uint256)\n    {\n        _tokenIds.increment();\n        uint256 newItemId = _tokenIds.current();\n        _mint(player, newItemId);\n        _setTokenURI(newItemId, tokenURI);\n\n        return newItemId;\n    }\n\n    function totalSuply() external view returns (uint256) {\n        uint256 latestTokenId =  _tokenIds.current();\n        return latestTokenId;\n    }\n}\n",
  "sourcePath": "/home/oshikawa/nft-metaverse/contracts/ERC721.sol",
  "compiler": {
    "name": "solc",
    "version": "0.8.13+commit.abaa5c0e.Emscripten.clang"
  },
  "schemaVersion": "3.4.11",
  "updatedAt": "2023-01-30T09:41:22.330Z",
  "devdoc": {
    "kind": "dev",
    "methods": {
      "approve(address,uint256)": {
        "details": "See {IERC721-approve}."
      },
      "balanceOf(address)": {
        "details": "See {IERC721-balanceOf}."
      },
      "getApproved(uint256)": {
        "details": "See {IERC721-getApproved}."
      },
      "isApprovedForAll(address,address)": {
        "details": "See {IERC721-isApprovedForAll}."
      },
      "name()": {
        "details": "See {IERC721Metadata-name}."
      },
      "ownerOf(uint256)": {
        "details": "See {IERC721-ownerOf}."
      },
      "safeTransferFrom(address,address,uint256)": {
        "details": "See {IERC721-safeTransferFrom}."
      },
      "safeTransferFrom(address,address,uint256,bytes)": {
        "details": "See {IERC721-safeTransferFrom}."
      },
      "setApprovalForAll(address,bool)": {
        "details": "See {IERC721-setApprovalForAll}."
      },
      "supportsInterface(bytes4)": {
        "details": "See {IERC165-supportsInterface}."
      },
      "symbol()": {
        "details": "See {IERC721Metadata-symbol}."
      },
      "tokenURI(uint256)": {
        "details": "See {IERC721Metadata-tokenURI}."
      },
      "transferFrom(address,address,uint256)": {
        "details": "See {IERC721-transferFrom}."
      }
    },
    "version": 1
  },
  "userdoc": {
    "kind": "user",
    "methods": {},
    "version": 1
  }
}