{
  "contractName": "MetaverseModel",
  "abi": [
    {
      "inputs": [],
      "stateMutability": "nonpayable",
      "type": "constructor"
    },
    {
      "anonymous": false,
      "inputs": [
        {
          "indexed": true,
          "internalType": "address",
          "name": "owner",
          "type": "address"
        },
        {
          "indexed": true,
          "internalType": "address",
          "name": "approved",
          "type": "address"
        },
        {
          "indexed": true,
          "internalType": "uint256",
          "name": "tokenId",
          "type": "uint256"
        }
      ],
      "name": "Approval",
      "type": "event"
    },
    {
      "anonymous": false,
      "inputs": [
        {
          "indexed": true,
          "internalType": "address",
          "name": "owner",
          "type": "address"
        },
        {
          "indexed": true,
          "internalType": "address",
          "name": "operator",
          "type": "address"
        },
        {
          "indexed": false,
          "internalType": "bool",
          "name": "approved",
          "type": "bool"
        }
      ],
      "name": "ApprovalForAll",
      "type": "event"
    },
    {
      "anonymous": false,
      "inputs": [
        {
          "indexed": true,
          "internalType": "address",
          "name": "from",
          "type": "address"
        },
        {
          "indexed": true,
          "internalType": "address",
          "name": "to",
          "type": "address"
        },
        {
          "indexed": true,
          "internalType": "uint256",
          "name": "tokenId",
          "type": "uint256"
        }
      ],
      "name": "Transfer",
      "type": "event"
    },
    {
      "inputs": [
        {
          "internalType": "address",
          "name": "to",
          "type": "address"
        },
        {
          "internalType": "uint256",
          "name": "tokenId",
          "type": "uint256"
        }
      ],
      "name": "approve",
      "outputs": [],
      "stateMutability": "nonpayable",
      "type": "function"
    },
    {
      "inputs": [
        {
          "internalType": "address",
          "name": "owner",
          "type": "address"
        }
      ],
      "name": "balanceOf",
      "outputs": [
        {
          "internalType": "uint256",
          "name": "",
          "type": "uint256"
        }
      ],
      "stateMutability": "view",
      "type": "function"
    },
    {
      "inputs": [
        {
          "internalType": "uint256",
          "name": "tokenId",
          "type": "uint256"
        }
      ],
      "name": "getApproved",
      "outputs": [
        {
          "internalType": "address",
          "name": "",
          "type": "address"
        }
      ],
      "stateMutability": "view",
      "type": "function"
    },
    {
      "inputs": [
        {
          "internalType": "address",
          "name": "owner",
          "type": "address"
        },
        {
          "internalType": "address",
          "name": "operator",
          "type": "address"
        }
      ],
      "name": "isApprovedForAll",
      "outputs": [
        {
          "internalType": "bool",
          "name": "",
          "type": "bool"
        }
      ],
      "stateMutability": "view",
      "type": "function"
    },
    {
      "inputs": [],
      "name": "name",
      "outputs": [
        {
          "internalType": "string",
          "name": "",
          "type": "string"
        }
      ],
      "stateMutability": "view",
      "type": "function"
    },
    {
      "inputs": [
        {
          "internalType": "uint256",
          "name": "tokenId",
          "type": "uint256"
        }
      ],
      "name": "ownerOf",
      "outputs": [
        {
          "internalType": "address",
          "name": "",
          "type": "address"
        }
      ],
      "stateMutability": "view",
      "type": "function"
    },
    {
      "inputs": [
        {
          "internalType": "address",
          "name": "from",
          "type": "address"
        },
        {
          "internalType": "address",
          "name": "to",
          "type": "address"
        },
        {
          "internalType": "uint256",
          "name": "tokenId",
          "type": "uint256"
        }
      ],
      "name": "safeTransferFrom",
      "outputs": [],
      "stateMutability": "nonpayable",
      "type": "function"
    },
    {
      "inputs": [
        {
          "internalType": "address",
          "name": "from",
          "type": "address"
        },
        {
          "internalType": "address",
          "name": "to",
          "type": "address"
        },
        {
          "internalType": "uint256",
          "name": "tokenId",
          "type": "uint256"
        },
        {
          "internalType": "bytes",
          "name": "data",
          "type": "bytes"
        }
      ],
      "name": "safeTransferFrom",
      "outputs": [],
      "stateMutability": "nonpayable",
      "type": "function"
    },
    {
      "inputs": [
        {
          "internalType": "address",
          "name": "operator",
          "type": "address"
        },
        {
          "internalType": "bool",
          "name": "approved",
          "type": "bool"
        }
      ],
      "name": "setApprovalForAll",
      "outputs": [],
      "stateMutability": "nonpayable",
      "type": "function"
    },
    {
      "inputs": [
        {
          "internalType": "bytes4",
          "name": "interfaceId",
          "type": "bytes4"
        }
      ],
      "name": "supportsInterface",
      "outputs": [
        {
          "internalType": "bool",
          "name": "",
          "type": "bool"
        }
      ],
      "stateMutability": "view",
      "type": "function"
    },
    {
      "inputs": [],
      "name": "symbol",
      "outputs": [
        {
          "internalType": "string",
          "name": "",
          "type": "string"
        }
      ],
      "stateMutability": "view",
      "type": "function"
    },
    {
      "inputs": [
        {
          "internalType": "uint256",
          "name": "tokenId",
          "type": "uint256"
        }
      ],
      "name": "tokenURI",
      "outputs": [
        {
          "internalType": "string",
          "name": "",
          "type": "string"
        }
      ],
      "stateMutability": "view",
      "type": "function"
    },
    {
      "inputs": [
        {
          "internalType": "address",
          "name": "from",
          "type": "address"
        },
        {
          "internalType": "address",
          "name": "to",
          "type": "address"
        },
        {
          "internalType": "uint256",
          "name": "tokenId",
          "type": "uint256"
        }
      ],
      "name": "transferFrom",
      "outputs": [],
      "stateMutability": "nonpayable",
      "type": "function"
    },
    {
      "inputs": [
        {
          "internalType": "address",
          "name": "player",
          "type": "address"
        },
        {
          "internalType": "string",
          "name": "tokenURI",
          "type": "string"
        }
      ],
      "name": "newItem",
      "outputs": [
        {
          "internalType": "uint256",
          "name": "",
          "type": "uint256"
        }
      ],
      "stateMutability": "nonpayable",
      "type": "function"
    }
  ],
  "bytecode": "0x60806040523480156200001157600080fd5b506040518060400160405280600e81526020017f4d6574617665727365546f6b656e0000000000000000000000000000000000008152506040518060400160405280600281526020017f4d54000000000000000000000000000000000000000000000000000000000000815250816000908051906020019062000096929190620000b8565b508060019080519060200190620000af929190620000b8565b505050620001cc565b828054620000c69062000197565b90600052602060002090601f016020900481019282620000ea576000855562000136565b82601f106200010557805160ff191683800117855562000136565b8280016001018555821562000136579182015b828111156200013557825182559160200191906001019062000118565b5b50905062000145919062000149565b5090565b5b80821115620001645760008160009055506001016200014a565b5090565b7f4e487b7100000000000000000000000000000000000000000000000000000000600052602260045260246000fd5b60006002820490506001821680620001b057607f821691505b602082108103620001c657620001c562000168565b5b50919050565b612a5680620001dc6000396000f3fe608060405234801561001057600080fd5b50600436106100ea5760003560e01c806370a082311161008c578063a22cb46511610066578063a22cb4651461026f578063b88d4fde1461028b578063c87b56dd146102a7578063e985e9c5146102d7576100ea565b806370a08231146101f157806389f057611461022157806395d89b4114610251576100ea565b8063095ea7b3116100c8578063095ea7b31461016d57806323b872dd1461018957806342842e0e146101a55780636352211e146101c1576100ea565b806301ffc9a7146100ef57806306fdde031461011f578063081812fc1461013d575b600080fd5b61010960048036038101906101049190611b01565b610307565b6040516101169190611b49565b60405180910390f35b6101276103e9565b6040516101349190611bfd565b60405180910390f35b61015760048036038101906101529190611c55565b61047b565b6040516101649190611cc3565b60405180910390f35b61018760048036038101906101829190611d0a565b6104c1565b005b6101a3600480360381019061019e9190611d4a565b6105d8565b005b6101bf60048036038101906101ba9190611d4a565b610638565b005b6101db60048036038101906101d69190611c55565b610658565b6040516101e89190611cc3565b60405180910390f35b61020b60048036038101906102069190611d9d565b6106de565b6040516102189190611dd9565b60405180910390f35b61023b60048036038101906102369190611f29565b610795565b6040516102489190611dd9565b60405180910390f35b6102596107cd565b6040516102669190611bfd565b60405180910390f35b61028960048036038101906102849190611fb1565b61085f565b005b6102a560048036038101906102a09190612092565b610875565b005b6102c160048036038101906102bc9190611c55565b6108d7565b6040516102ce9190611bfd565b60405180910390f35b6102f160048036038101906102ec9190612115565b6109e9565b6040516102fe9190611b49565b60405180910390f35b60007f80ac58cd000000000000000000000000000000000000000000000000000000007bffffffffffffffffffffffffffffffffffffffffffffffffffffffff1916827bffffffffffffffffffffffffffffffffffffffffffffffffffffffff191614806103d257507f5b5e139f000000000000000000000000000000000000000000000000000000007bffffffffffffffffffffffffffffffffffffffffffffffffffffffff1916827bffffffffffffffffffffffffffffffffffffffffffffffffffffffff1916145b806103e257506103e182610a7d565b5b9050919050565b6060600080546103f890612184565b80601f016020809104026020016040519081016040528092919081815260200182805461042490612184565b80156104715780601f1061044657610100808354040283529160200191610471565b820191906000526020600020905b81548152906001019060200180831161045457829003601f168201915b5050505050905090565b600061048682610ae7565b6004600083815260200190815260200160002060009054906101000a900473ffffffffffffffffffffffffffffffffffffffff169050919050565b60006104cc82610658565b90508073ffffffffffffffffffffffffffffffffffffffff168373ffffffffffffffffffffffffffffffffffffffff160361053c576040517f08c379a000000000000000000000000000000000000000000000000000000000815260040161053390612227565b60405180910390fd5b8073ffffffffffffffffffffffffffffffffffffffff1661055b610b32565b73ffffffffffffffffffffffffffffffffffffffff16148061058a575061058981610584610b32565b6109e9565b5b6105c9576040517f08c379a00000000000000000000000000000000000000000000000000000000081526004016105c0906122b9565b60405180910390fd5b6105d38383610b3a565b505050565b6105e96105e3610b32565b82610bf3565b610628576040517f08c379a000000000000000000000000000000000000000000000000000000000815260040161061f9061234b565b60405180910390fd5b610633838383610c88565b505050565b61065383838360405180602001604052806000815250610875565b505050565b60008061066483610f81565b9050600073ffffffffffffffffffffffffffffffffffffffff168173ffffffffffffffffffffffffffffffffffffffff16036106d5576040517f08c379a00000000000000000000000000000000000000000000000000000000081526004016106cc906123b7565b60405180910390fd5b80915050919050565b60008073ffffffffffffffffffffffffffffffffffffffff168273ffffffffffffffffffffffffffffffffffffffff160361074e576040517f08c379a000000000000000000000000000000000000000000000000000000000815260040161074590612449565b60405180910390fd5b600360008373ffffffffffffffffffffffffffffffffffffffff1673ffffffffffffffffffffffffffffffffffffffff168152602001908152602001600020549050919050565b60006107a16007610fbe565b60006107ad6007610fd4565b90506107b98482610fe2565b6107c381846111ff565b8091505092915050565b6060600180546107dc90612184565b80601f016020809104026020016040519081016040528092919081815260200182805461080890612184565b80156108555780601f1061082a57610100808354040283529160200191610855565b820191906000526020600020905b81548152906001019060200180831161083857829003601f168201915b5050505050905090565b61087161086a610b32565b8383611273565b5050565b610886610880610b32565b83610bf3565b6108c5576040517f08c379a00000000000000000000000000000000000000000000000000000000081526004016108bc9061234b565b60405180910390fd5b6108d1848484846113df565b50505050565b60606108e282610ae7565b600060066000848152602001908152602001600020805461090290612184565b80601f016020809104026020016040519081016040528092919081815260200182805461092e90612184565b801561097b5780601f106109505761010080835404028352916020019161097b565b820191906000526020600020905b81548152906001019060200180831161095e57829003601f168201915b50505050509050600061098c61143b565b905060008151036109a15781925050506109e4565b6000825111156109d65780826040516020016109be9291906124a5565b604051602081830303815290604052925050506109e4565b6109df84611452565b925050505b919050565b6000600560008473ffffffffffffffffffffffffffffffffffffffff1673ffffffffffffffffffffffffffffffffffffffff16815260200190815260200160002060008373ffffffffffffffffffffffffffffffffffffffff1673ffffffffffffffffffffffffffffffffffffffff16815260200190815260200160002060009054906101000a900460ff16905092915050565b60007f01ffc9a7000000000000000000000000000000000000000000000000000000007bffffffffffffffffffffffffffffffffffffffffffffffffffffffff1916827bffffffffffffffffffffffffffffffffffffffffffffffffffffffff1916149050919050565b610af0816114ba565b610b2f576040517f08c379a0000000000000000000000000000000000000000000000000000000008152600401610b26906123b7565b60405180910390fd5b50565b600033905090565b816004600083815260200190815260200160002060006101000a81548173ffffffffffffffffffffffffffffffffffffffff021916908373ffffffffffffffffffffffffffffffffffffffff160217905550808273ffffffffffffffffffffffffffffffffffffffff16610bad83610658565b73ffffffffffffffffffffffffffffffffffffffff167f8c5be1e5ebec7d5bd14f71427d1e84f3dd0314c0f7b2291e5b200ac8c7c3b92560405160405180910390a45050565b600080610bff83610658565b90508073ffffffffffffffffffffffffffffffffffffffff168473ffffffffffffffffffffffffffffffffffffffff161480610c415750610c4081856109e9565b5b80610c7f57508373ffffffffffffffffffffffffffffffffffffffff16610c678461047b565b73ffffffffffffffffffffffffffffffffffffffff16145b91505092915050565b8273ffffffffffffffffffffffffffffffffffffffff16610ca882610658565b73ffffffffffffffffffffffffffffffffffffffff1614610cfe576040517f08c379a0000000000000000000000000000000000000000000000000000000008152600401610cf59061253b565b60405180910390fd5b600073ffffffffffffffffffffffffffffffffffffffff168273ffffffffffffffffffffffffffffffffffffffff1603610d6d576040517f08c379a0000000000000000000000000000000000000000000000000000000008152600401610d64906125cd565b60405180910390fd5b610d7a83838360016114fb565b8273ffffffffffffffffffffffffffffffffffffffff16610d9a82610658565b73ffffffffffffffffffffffffffffffffffffffff1614610df0576040517f08c379a0000000000000000000000000000000000000000000000000000000008152600401610de79061253b565b60405180910390fd5b6004600082815260200190815260200160002060006101000a81549073ffffffffffffffffffffffffffffffffffffffff02191690556001600360008573ffffffffffffffffffffffffffffffffffffffff1673ffffffffffffffffffffffffffffffffffffffff168152602001908152602001600020600082825403925050819055506001600360008473ffffffffffffffffffffffffffffffffffffffff1673ffffffffffffffffffffffffffffffffffffffff16815260200190815260200160002060008282540192505081905550816002600083815260200190815260200160002060006101000a81548173ffffffffffffffffffffffffffffffffffffffff021916908373ffffffffffffffffffffffffffffffffffffffff160217905550808273ffffffffffffffffffffffffffffffffffffffff168473ffffffffffffffffffffffffffffffffffffffff167fddf252ad1be2c89b69c2b068fc378daa952ba7f163c4a11628f55a4df523b3ef60405160405180910390a4610f7c8383836001611621565b505050565b60006002600083815260200190815260200160002060009054906101000a900473ffffffffffffffffffffffffffffffffffffffff169050919050565b6001816000016000828254019250508190555050565b600081600001549050919050565b600073ffffffffffffffffffffffffffffffffffffffff168273ffffffffffffffffffffffffffffffffffffffff1603611051576040517f08c379a000000000000000000000000000000000000000000000000000000000815260040161104890612639565b60405180910390fd5b61105a816114ba565b1561109a576040517f08c379a0000000000000000000000000000000000000000000000000000000008152600401611091906126a5565b60405180910390fd5b6110a86000838360016114fb565b6110b1816114ba565b156110f1576040517f08c379a00000000000000000000000000000000000000000000000000000000081526004016110e8906126a5565b60405180910390fd5b6001600360008473ffffffffffffffffffffffffffffffffffffffff1673ffffffffffffffffffffffffffffffffffffffff16815260200190815260200160002060008282540192505081905550816002600083815260200190815260200160002060006101000a81548173ffffffffffffffffffffffffffffffffffffffff021916908373ffffffffffffffffffffffffffffffffffffffff160217905550808273ffffffffffffffffffffffffffffffffffffffff16600073ffffffffffffffffffffffffffffffffffffffff167fddf252ad1be2c89b69c2b068fc378daa952ba7f163c4a11628f55a4df523b3ef60405160405180910390a46111fb600083836001611621565b5050565b611208826114ba565b611247576040517f08c379a000000000000000000000000000000000000000000000000000000000815260040161123e90612737565b60405180910390fd5b8060066000848152602001908152602001600020908051906020019061126e9291906119f2565b505050565b8173ffffffffffffffffffffffffffffffffffffffff168373ffffffffffffffffffffffffffffffffffffffff16036112e1576040517f08c379a00000000000000000000000000000000000000000000000000000000081526004016112d8906127a3565b60405180910390fd5b80600560008573ffffffffffffffffffffffffffffffffffffffff1673ffffffffffffffffffffffffffffffffffffffff16815260200190815260200160002060008473ffffffffffffffffffffffffffffffffffffffff1673ffffffffffffffffffffffffffffffffffffffff16815260200190815260200160002060006101000a81548160ff0219169083151502179055508173ffffffffffffffffffffffffffffffffffffffff168373ffffffffffffffffffffffffffffffffffffffff167f17307eab39ab6107e8899845ad3d59bd9653f200f220920489ca2b5937696c31836040516113d29190611b49565b60405180910390a3505050565b6113ea848484610c88565b6113f684848484611627565b611435576040517f08c379a000000000000000000000000000000000000000000000000000000000815260040161142c90612835565b60405180910390fd5b50505050565b606060405180602001604052806000815250905090565b606061145d82610ae7565b600061146761143b565b9050600081511161148757604051806020016040528060008152506114b2565b80611491846117ae565b6040516020016114a29291906124a5565b6040516020818303038152906040525b915050919050565b60008073ffffffffffffffffffffffffffffffffffffffff166114dc83610f81565b73ffffffffffffffffffffffffffffffffffffffff1614159050919050565b600181111561161b57600073ffffffffffffffffffffffffffffffffffffffff168473ffffffffffffffffffffffffffffffffffffffff161461158f5780600360008673ffffffffffffffffffffffffffffffffffffffff1673ffffffffffffffffffffffffffffffffffffffff16815260200190815260200160002060008282546115879190612884565b925050819055505b600073ffffffffffffffffffffffffffffffffffffffff168373ffffffffffffffffffffffffffffffffffffffff161461161a5780600360008573ffffffffffffffffffffffffffffffffffffffff1673ffffffffffffffffffffffffffffffffffffffff168152602001908152602001600020600082825461161291906128b8565b925050819055505b5b50505050565b50505050565b60006116488473ffffffffffffffffffffffffffffffffffffffff1661187c565b156117a1578373ffffffffffffffffffffffffffffffffffffffff1663150b7a02611671610b32565b8786866040518563ffffffff1660e01b81526004016116939493929190612963565b6020604051808303816000875af19250505080156116cf57506040513d601f19601f820116820180604052508101906116cc91906129c4565b60015b611751573d80600081146116ff576040519150601f19603f3d011682016040523d82523d6000602084013e611704565b606091505b506000815103611749576040517f08c379a000000000000000000000000000000000000000000000000000000000815260040161174090612835565b60405180910390fd5b805181602001fd5b63150b7a0260e01b7bffffffffffffffffffffffffffffffffffffffffffffffffffffffff1916817bffffffffffffffffffffffffffffffffffffffffffffffffffffffff1916149150506117a6565b600190505b949350505050565b6060600060016117bd8461189f565b01905060008167ffffffffffffffff8111156117dc576117db611dfe565b5b6040519080825280601f01601f19166020018201604052801561180e5781602001600182028036833780820191505090505b509050600082602001820190505b600115611871578080600190039150507f3031323334353637383961626364656600000000000000000000000000000000600a86061a8153600a8581611865576118646129f1565b5b0494506000850361181c575b819350505050919050565b6000808273ffffffffffffffffffffffffffffffffffffffff163b119050919050565b600080600090507a184f03e93ff9f4daa797ed6e38ed64bf6a1f01000000000000000083106118fd577a184f03e93ff9f4daa797ed6e38ed64bf6a1f01000000000000000083816118f3576118f26129f1565b5b0492506040810190505b6d04ee2d6d415b85acef8100000000831061193a576d04ee2d6d415b85acef810000000083816119305761192f6129f1565b5b0492506020810190505b662386f26fc10000831061196957662386f26fc10000838161195f5761195e6129f1565b5b0492506010810190505b6305f5e1008310611992576305f5e1008381611988576119876129f1565b5b0492506008810190505b61271083106119b75761271083816119ad576119ac6129f1565b5b0492506004810190505b606483106119da57606483816119d0576119cf6129f1565b5b0492506002810190505b600a83106119e9576001810190505b80915050919050565b8280546119fe90612184565b90600052602060002090601f016020900481019282611a205760008555611a67565b82601f10611a3957805160ff1916838001178555611a67565b82800160010185558215611a67579182015b82811115611a66578251825591602001919060010190611a4b565b5b509050611a749190611a78565b5090565b5b80821115611a91576000816000905550600101611a79565b5090565b6000604051905090565b600080fd5b600080fd5b60007fffffffff0000000000000000000000000000000000000000000000000000000082169050919050565b611ade81611aa9565b8114611ae957600080fd5b50565b600081359050611afb81611ad5565b92915050565b600060208284031215611b1757611b16611a9f565b5b6000611b2584828501611aec565b91505092915050565b60008115159050919050565b611b4381611b2e565b82525050565b6000602082019050611b5e6000830184611b3a565b92915050565b600081519050919050565b600082825260208201905092915050565b60005b83811015611b9e578082015181840152602081019050611b83565b83811115611bad576000848401525b50505050565b6000601f19601f8301169050919050565b6000611bcf82611b64565b611bd98185611b6f565b9350611be9818560208601611b80565b611bf281611bb3565b840191505092915050565b60006020820190508181036000830152611c178184611bc4565b905092915050565b6000819050919050565b611c3281611c1f565b8114611c3d57600080fd5b50565b600081359050611c4f81611c29565b92915050565b600060208284031215611c6b57611c6a611a9f565b5b6000611c7984828501611c40565b91505092915050565b600073ffffffffffffffffffffffffffffffffffffffff82169050919050565b6000611cad82611c82565b9050919050565b611cbd81611ca2565b82525050565b6000602082019050611cd86000830184611cb4565b92915050565b611ce781611ca2565b8114611cf257600080fd5b50565b600081359050611d0481611cde565b92915050565b60008060408385031215611d2157611d20611a9f565b5b6000611d2f85828601611cf5565b9250506020611d4085828601611c40565b9150509250929050565b600080600060608486031215611d6357611d62611a9f565b5b6000611d7186828701611cf5565b9350506020611d8286828701611cf5565b9250506040611d9386828701611c40565b9150509250925092565b600060208284031215611db357611db2611a9f565b5b6000611dc184828501611cf5565b91505092915050565b611dd381611c1f565b82525050565b6000602082019050611dee6000830184611dca565b92915050565b600080fd5b600080fd5b7f4e487b7100000000000000000000000000000000000000000000000000000000600052604160045260246000fd5b611e3682611bb3565b810181811067ffffffffffffffff82111715611e5557611e54611dfe565b5b80604052505050565b6000611e68611a95565b9050611e748282611e2d565b919050565b600067ffffffffffffffff821115611e9457611e93611dfe565b5b611e9d82611bb3565b9050602081019050919050565b82818337600083830152505050565b6000611ecc611ec784611e79565b611e5e565b905082815260208101848484011115611ee857611ee7611df9565b5b611ef3848285611eaa565b509392505050565b600082601f830112611f1057611f0f611df4565b5b8135611f20848260208601611eb9565b91505092915050565b60008060408385031215611f4057611f3f611a9f565b5b6000611f4e85828601611cf5565b925050602083013567ffffffffffffffff811115611f6f57611f6e611aa4565b5b611f7b85828601611efb565b9150509250929050565b611f8e81611b2e565b8114611f9957600080fd5b50565b600081359050611fab81611f85565b92915050565b60008060408385031215611fc857611fc7611a9f565b5b6000611fd685828601611cf5565b9250506020611fe785828601611f9c565b9150509250929050565b600067ffffffffffffffff82111561200c5761200b611dfe565b5b61201582611bb3565b9050602081019050919050565b600061203561203084611ff1565b611e5e565b90508281526020810184848401111561205157612050611df9565b5b61205c848285611eaa565b509392505050565b600082601f83011261207957612078611df4565b5b8135612089848260208601612022565b91505092915050565b600080600080608085870312156120ac576120ab611a9f565b5b60006120ba87828801611cf5565b94505060206120cb87828801611cf5565b93505060406120dc87828801611c40565b925050606085013567ffffffffffffffff8111156120fd576120fc611aa4565b5b61210987828801612064565b91505092959194509250565b6000806040838503121561212c5761212b611a9f565b5b600061213a85828601611cf5565b925050602061214b85828601611cf5565b9150509250929050565b7f4e487b7100000000000000000000000000000000000000000000000000000000600052602260045260246000fd5b6000600282049050600182168061219c57607f821691505b6020821081036121af576121ae612155565b5b50919050565b7f4552433732313a20617070726f76616c20746f2063757272656e74206f776e6560008201527f7200000000000000000000000000000000000000000000000000000000000000602082015250565b6000612211602183611b6f565b915061221c826121b5565b604082019050919050565b6000602082019050818103600083015261224081612204565b9050919050565b7f4552433732313a20617070726f76652063616c6c6572206973206e6f7420746f60008201527f6b656e206f776e6572206f7220617070726f76656420666f7220616c6c000000602082015250565b60006122a3603d83611b6f565b91506122ae82612247565b604082019050919050565b600060208201905081810360008301526122d281612296565b9050919050565b7f4552433732313a2063616c6c6572206973206e6f7420746f6b656e206f776e6560008201527f72206f7220617070726f76656400000000000000000000000000000000000000602082015250565b6000612335602d83611b6f565b9150612340826122d9565b604082019050919050565b6000602082019050818103600083015261236481612328565b9050919050565b7f4552433732313a20696e76616c696420746f6b656e2049440000000000000000600082015250565b60006123a1601883611b6f565b91506123ac8261236b565b602082019050919050565b600060208201905081810360008301526123d081612394565b9050919050565b7f4552433732313a2061646472657373207a65726f206973206e6f74206120766160008201527f6c6964206f776e65720000000000000000000000000000000000000000000000602082015250565b6000612433602983611b6f565b915061243e826123d7565b604082019050919050565b6000602082019050818103600083015261246281612426565b9050919050565b600081905092915050565b600061247f82611b64565b6124898185612469565b9350612499818560208601611b80565b80840191505092915050565b60006124b18285612474565b91506124bd8284612474565b91508190509392505050565b7f4552433732313a207472616e736665722066726f6d20696e636f72726563742060008201527f6f776e6572000000000000000000000000000000000000000000000000000000602082015250565b6000612525602583611b6f565b9150612530826124c9565b604082019050919050565b6000602082019050818103600083015261255481612518565b9050919050565b7f4552433732313a207472616e7366657220746f20746865207a65726f2061646460008201527f7265737300000000000000000000000000000000000000000000000000000000602082015250565b60006125b7602483611b6f565b91506125c28261255b565b604082019050919050565b600060208201905081810360008301526125e6816125aa565b9050919050565b7f4552433732313a206d696e7420746f20746865207a65726f2061646472657373600082015250565b6000612623602083611b6f565b915061262e826125ed565b602082019050919050565b6000602082019050818103600083015261265281612616565b9050919050565b7f4552433732313a20746f6b656e20616c7265616479206d696e74656400000000600082015250565b600061268f601c83611b6f565b915061269a82612659565b602082019050919050565b600060208201905081810360008301526126be81612682565b9050919050565b7f45524337323155524953746f726167653a2055524920736574206f66206e6f6e60008201527f6578697374656e7420746f6b656e000000000000000000000000000000000000602082015250565b6000612721602e83611b6f565b915061272c826126c5565b604082019050919050565b6000602082019050818103600083015261275081612714565b9050919050565b7f4552433732313a20617070726f766520746f2063616c6c657200000000000000600082015250565b600061278d601983611b6f565b915061279882612757565b602082019050919050565b600060208201905081810360008301526127bc81612780565b9050919050565b7f4552433732313a207472616e7366657220746f206e6f6e20455243373231526560008201527f63656976657220696d706c656d656e7465720000000000000000000000000000602082015250565b600061281f603283611b6f565b915061282a826127c3565b604082019050919050565b6000602082019050818103600083015261284e81612812565b9050919050565b7f4e487b7100000000000000000000000000000000000000000000000000000000600052601160045260246000fd5b600061288f82611c1f565b915061289a83611c1f565b9250828210156128ad576128ac612855565b5b828203905092915050565b60006128c382611c1f565b91506128ce83611c1f565b9250827fffffffffffffffffffffffffffffffffffffffffffffffffffffffffffffffff0382111561290357612902612855565b5b828201905092915050565b600081519050919050565b600082825260208201905092915050565b60006129358261290e565b61293f8185612919565b935061294f818560208601611b80565b61295881611bb3565b840191505092915050565b60006080820190506129786000830187611cb4565b6129856020830186611cb4565b6129926040830185611dca565b81810360608301526129a4818461292a565b905095945050505050565b6000815190506129be81611ad5565b92915050565b6000602082840312156129da576129d9611a9f565b5b60006129e8848285016129af565b91505092915050565b7f4e487b7100000000000000000000000000000000000000000000000000000000600052601260045260246000fdfea2646970667358221220bcb81f78bbee4ca614e20d6bdf01bb2ec508922edf38a9feaa6309aea4c1d17a64736f6c634300080d0033",
  "immutableReferences": {},
  "source": "pragma solidity ^0.8.0;\n\nimport \"@openzeppelin/contracts/token/ERC721/extensions/ERC721URIStorage.sol\";\nimport \"@openzeppelin/contracts/utils/Counters.sol\";\n\ncontract MetaverseModel is ERC721URIStorage {\n    using Counters for Counters.Counter;\n    Counters.Counter private _tokenIds;\n\n    constructor() ERC721(\"MetaverseToken\", \"MT\") {}\n\n    function newItem(address player, string memory tokenURI)\n        public\n        returns (uint256)\n    {\n        _tokenIds.increment();\n        uint256 newItemId = _tokenIds.current();\n        _mint(player, newItemId);\n        _setTokenURI(newItemId, tokenURI);\n\n        return newItemId;\n    }\n}\n",
  "sourcePath": "/home/oshikawa/nft-metaverse/contracts/ERC721.sol",
  "compiler": {
    "name": "solc",
    "version": "0.8.13+commit.abaa5c0e.Emscripten.clang"
  },
  "schemaVersion": "3.4.11",
  "updatedAt": "2023-01-30T00:15:46.052Z",
  "devdoc": {
    "kind": "dev",
    "methods": {
      "approve(address,uint256)": {
        "details": "See {IERC721-approve}."
      },
      "balanceOf(address)": {
        "details": "See {IERC721-balanceOf}."
      },
      "getApproved(uint256)": {
        "details": "See {IERC721-getApproved}."
      },
      "isApprovedForAll(address,address)": {
        "details": "See {IERC721-isApprovedForAll}."
      },
      "name()": {
        "details": "See {IERC721Metadata-name}."
      },
      "ownerOf(uint256)": {
        "details": "See {IERC721-ownerOf}."
      },
      "safeTransferFrom(address,address,uint256)": {
        "details": "See {IERC721-safeTransferFrom}."
      },
      "safeTransferFrom(address,address,uint256,bytes)": {
        "details": "See {IERC721-safeTransferFrom}."
      },
      "setApprovalForAll(address,bool)": {
        "details": "See {IERC721-setApprovalForAll}."
      },
      "supportsInterface(bytes4)": {
        "details": "See {IERC165-supportsInterface}."
      },
      "symbol()": {
        "details": "See {IERC721Metadata-symbol}."
      },
      "tokenURI(uint256)": {
        "details": "See {IERC721Metadata-tokenURI}."
      },
      "transferFrom(address,address,uint256)": {
        "details": "See {IERC721-transferFrom}."
      }
    },
    "version": 1
  },
  "userdoc": {
    "kind": "user",
    "methods": {},
    "version": 1
  }
}